{"contracts/lens/SkyXInterfaceMulticall.sol":{"SkyXInterfaceMulticall":{"abi":[{"inputs":[],"name":"getCurrentBlockTimestamp","outputs":[{"internalType":"uint256","name":"timestamp","type":"uint256"}],"stateMutability":"view","type":"function"},{"inputs":[{"internalType":"address","name":"addr","type":"address"}],"name":"getEthBalance","outputs":[{"internalType":"uint256","name":"balance","type":"uint256"}],"stateMutability":"view","type":"function"},{"inputs":[{"components":[{"internalType":"address","name":"target","type":"address"},{"internalType":"uint256","name":"gasLimit","type":"uint256"},{"internalType":"bytes","name":"callData","type":"bytes"}],"internalType":"struct SkyXInterfaceMulticall.Call[]","name":"calls","type":"tuple[]"}],"name":"multicall","outputs":[{"internalType":"uint256","name":"blockNumber","type":"uint256"},{"components":[{"internalType":"bool","name":"success","type":"bool"},{"internalType":"uint256","name":"gasUsed","type":"uint256"},{"internalType":"bytes","name":"returnData","type":"bytes"}],"internalType":"struct SkyXInterfaceMulticall.Result[]","name":"returnData","type":"tuple[]"}],"stateMutability":"nonpayable","type":"function"}],"devdoc":{"kind":"dev","methods":{},"version":1},"evm":{"bytecode":{"linkReferences":{},"object":"608060405234801561001057600080fd5b5061050f806100206000396000f3fe608060405234801561001057600080fd5b50600436106100415760003560e01c80630f28c97d146100465780631749e1e3146100645780634d2301cc14610085575b600080fd5b61004e610098565b60405161005b91906103da565b60405180910390f35b610077610072366004610280565b61009c565b60405161005b9291906103e3565b61004e61009336600461025f565b610213565b4290565b8051439060609067ffffffffffffffff811180156100b957600080fd5b506040519080825280602002602001820160405280156100f357816020015b6100e0610220565b8152602001906001900390816100d85790505b50905060005b835181101561020d57600080600086848151811061011357fe5b60200260200101516000015187858151811061012b57fe5b60200260200101516020015188868151811061014357fe5b60200260200101516040015192509250925060005a9050600080856001600160a01b0316858560405161017691906103be565b60006040518083038160008787f1925050503d80600081146101b4576040519150601f19603f3d011682016040523d82523d6000602084013e6101b9565b606091505b509150915060005a8403905060405180606001604052808415158152602001828152602001838152508989815181106101ee57fe5b60200260200101819052505050505050505080806001019150506100f9565b50915091565b6001600160a01b03163190565b604051806060016040528060001515815260200160008152602001606081525090565b80356001600160a01b038116811461025a57600080fd5b919050565b600060208284031215610270578081fd5b61027982610243565b9392505050565b60006020808385031215610292578182fd5b823567ffffffffffffffff808211156102a9578384fd5b818501915085601f8301126102bc578384fd5b8135818111156102c857fe5b6102d58485830201610485565b81815284810190848601875b848110156103af5781358701601f196060828e0382011215610301578a8bfd5b60408051606081018181108b8211171561031757fe5b8252610324848d01610243565b8152818401358c82015260608401358a81111561033f578d8efd5b8085019450508e603f850112610353578c8dfd5b8b8401358a81111561036157fe5b6103718d85601f84011601610485565b93508084528f83828701011115610386578d8efd5b808386018e86013783018c018d90529081019190915285525092870192908701906001016102e1565b50909998505050505050505050565b600082516103d08184602087016104a9565b9190910192915050565b90815260200190565b600060408083018584526020828186015281865180845260609350838701915083838202880101838901875b8381101561047557898303605f19018552815180511515845286810151878501528801518884018890528051888501819052608061045282828801858c016104a9565b96880196601f91909101601f19169490940190930192509085019060010161040f565b50909a9950505050505050505050565b60405181810167ffffffffffffffff811182821017156104a157fe5b604052919050565b60005b838110156104c45781810151838201526020016104ac565b838111156104d3576000848401525b5050505056fea26469706673582212200bcd5c024d7b6e4af27d51dbecb21538180caf4269a84d99536f64dec1de5fbd64736f6c63430007060033","opcodes":"PUSH1 0x80 PUSH1 0x40 MSTORE CALLVALUE DUP1 ISZERO PUSH2 0x10 JUMPI PUSH1 0x0 DUP1 REVERT JUMPDEST POP PUSH2 0x50F DUP1 PUSH2 0x20 PUSH1 0x0 CODECOPY PUSH1 0x0 RETURN INVALID PUSH1 0x80 PUSH1 0x40 MSTORE CALLVALUE DUP1 ISZERO PUSH2 0x10 JUMPI PUSH1 0x0 DUP1 REVERT JUMPDEST POP PUSH1 0x4 CALLDATASIZE LT PUSH2 0x41 JUMPI PUSH1 0x0 CALLDATALOAD PUSH1 0xE0 SHR DUP1 PUSH4 0xF28C97D EQ PUSH2 0x46 JUMPI DUP1 PUSH4 0x1749E1E3 EQ PUSH2 0x64 JUMPI DUP1 PUSH4 0x4D2301CC EQ PUSH2 0x85 JUMPI JUMPDEST PUSH1 0x0 DUP1 REVERT JUMPDEST PUSH2 0x4E PUSH2 0x98 JUMP JUMPDEST PUSH1 0x40 MLOAD PUSH2 0x5B SWAP2 SWAP1 PUSH2 0x3DA JUMP JUMPDEST PUSH1 0x40 MLOAD DUP1 SWAP2 SUB SWAP1 RETURN JUMPDEST PUSH2 0x77 PUSH2 0x72 CALLDATASIZE PUSH1 0x4 PUSH2 0x280 JUMP JUMPDEST PUSH2 0x9C JUMP JUMPDEST PUSH1 0x40 MLOAD PUSH2 0x5B SWAP3 SWAP2 SWAP1 PUSH2 0x3E3 JUMP JUMPDEST PUSH2 0x4E PUSH2 0x93 CALLDATASIZE PUSH1 0x4 PUSH2 0x25F JUMP JUMPDEST PUSH2 0x213 JUMP JUMPDEST TIMESTAMP SWAP1 JUMP JUMPDEST DUP1 MLOAD NUMBER SWAP1 PUSH1 0x60 SWAP1 PUSH8 0xFFFFFFFFFFFFFFFF DUP2 GT DUP1 ISZERO PUSH2 0xB9 JUMPI PUSH1 0x0 DUP1 REVERT JUMPDEST POP PUSH1 0x40 MLOAD SWAP1 DUP1 DUP3 MSTORE DUP1 PUSH1 0x20 MUL PUSH1 0x20 ADD DUP3 ADD PUSH1 0x40 MSTORE DUP1 ISZERO PUSH2 0xF3 JUMPI DUP2 PUSH1 0x20 ADD JUMPDEST PUSH2 0xE0 PUSH2 0x220 JUMP JUMPDEST DUP2 MSTORE PUSH1 0x20 ADD SWAP1 PUSH1 0x1 SWAP1 SUB SWAP1 DUP2 PUSH2 0xD8 JUMPI SWAP1 POP JUMPDEST POP SWAP1 POP PUSH1 0x0 JUMPDEST DUP4 MLOAD DUP2 LT ISZERO PUSH2 0x20D JUMPI PUSH1 0x0 DUP1 PUSH1 0x0 DUP7 DUP5 DUP2 MLOAD DUP2 LT PUSH2 0x113 JUMPI INVALID JUMPDEST PUSH1 0x20 MUL PUSH1 0x20 ADD ADD MLOAD PUSH1 0x0 ADD MLOAD DUP8 DUP6 DUP2 MLOAD DUP2 LT PUSH2 0x12B JUMPI INVALID JUMPDEST PUSH1 0x20 MUL PUSH1 0x20 ADD ADD MLOAD PUSH1 0x20 ADD MLOAD DUP9 DUP7 DUP2 MLOAD DUP2 LT PUSH2 0x143 JUMPI INVALID JUMPDEST PUSH1 0x20 MUL PUSH1 0x20 ADD ADD MLOAD PUSH1 0x40 ADD MLOAD SWAP3 POP SWAP3 POP SWAP3 POP PUSH1 0x0 GAS SWAP1 POP PUSH1 0x0 DUP1 DUP6 PUSH1 0x1 PUSH1 0x1 PUSH1 0xA0 SHL SUB AND DUP6 DUP6 PUSH1 0x40 MLOAD PUSH2 0x176 SWAP2 SWAP1 PUSH2 0x3BE JUMP JUMPDEST PUSH1 0x0 PUSH1 0x40 MLOAD DUP1 DUP4 SUB DUP2 PUSH1 0x0 DUP8 DUP8 CALL SWAP3 POP POP POP RETURNDATASIZE DUP1 PUSH1 0x0 DUP2 EQ PUSH2 0x1B4 JUMPI PUSH1 0x40 MLOAD SWAP2 POP PUSH1 0x1F NOT PUSH1 0x3F RETURNDATASIZE ADD AND DUP3 ADD PUSH1 0x40 MSTORE RETURNDATASIZE DUP3 MSTORE RETURNDATASIZE PUSH1 0x0 PUSH1 0x20 DUP5 ADD RETURNDATACOPY PUSH2 0x1B9 JUMP JUMPDEST PUSH1 0x60 SWAP2 POP JUMPDEST POP SWAP2 POP SWAP2 POP PUSH1 0x0 GAS DUP5 SUB SWAP1 POP PUSH1 0x40 MLOAD DUP1 PUSH1 0x60 ADD PUSH1 0x40 MSTORE DUP1 DUP5 ISZERO ISZERO DUP2 MSTORE PUSH1 0x20 ADD DUP3 DUP2 MSTORE PUSH1 0x20 ADD DUP4 DUP2 MSTORE POP DUP10 DUP10 DUP2 MLOAD DUP2 LT PUSH2 0x1EE JUMPI INVALID JUMPDEST PUSH1 0x20 MUL PUSH1 0x20 ADD ADD DUP2 SWAP1 MSTORE POP POP POP POP POP POP POP POP DUP1 DUP1 PUSH1 0x1 ADD SWAP2 POP POP PUSH2 0xF9 JUMP JUMPDEST POP SWAP2 POP SWAP2 JUMP JUMPDEST PUSH1 0x1 PUSH1 0x1 PUSH1 0xA0 SHL SUB AND BALANCE SWAP1 JUMP JUMPDEST PUSH1 0x40 MLOAD DUP1 PUSH1 0x60 ADD PUSH1 0x40 MSTORE DUP1 PUSH1 0x0 ISZERO ISZERO DUP2 MSTORE PUSH1 0x20 ADD PUSH1 0x0 DUP2 MSTORE PUSH1 0x20 ADD PUSH1 0x60 DUP2 MSTORE POP SWAP1 JUMP JUMPDEST DUP1 CALLDATALOAD PUSH1 0x1 PUSH1 0x1 PUSH1 0xA0 SHL SUB DUP2 AND DUP2 EQ PUSH2 0x25A JUMPI PUSH1 0x0 DUP1 REVERT JUMPDEST SWAP2 SWAP1 POP JUMP JUMPDEST PUSH1 0x0 PUSH1 0x20 DUP3 DUP5 SUB SLT ISZERO PUSH2 0x270 JUMPI DUP1 DUP2 REVERT JUMPDEST PUSH2 0x279 DUP3 PUSH2 0x243 JUMP JUMPDEST SWAP4 SWAP3 POP POP POP JUMP JUMPDEST PUSH1 0x0 PUSH1 0x20 DUP1 DUP4 DUP6 SUB SLT ISZERO PUSH2 0x292 JUMPI DUP2 DUP3 REVERT JUMPDEST DUP3 CALLDATALOAD PUSH8 0xFFFFFFFFFFFFFFFF DUP1 DUP3 GT ISZERO PUSH2 0x2A9 JUMPI DUP4 DUP5 REVERT JUMPDEST DUP2 DUP6 ADD SWAP2 POP DUP6 PUSH1 0x1F DUP4 ADD SLT PUSH2 0x2BC JUMPI DUP4 DUP5 REVERT JUMPDEST DUP2 CALLDATALOAD DUP2 DUP2 GT ISZERO PUSH2 0x2C8 JUMPI INVALID JUMPDEST PUSH2 0x2D5 DUP5 DUP6 DUP4 MUL ADD PUSH2 0x485 JUMP JUMPDEST DUP2 DUP2 MSTORE DUP5 DUP2 ADD SWAP1 DUP5 DUP7 ADD DUP8 JUMPDEST DUP5 DUP2 LT ISZERO PUSH2 0x3AF JUMPI DUP2 CALLDATALOAD DUP8 ADD PUSH1 0x1F NOT PUSH1 0x60 DUP3 DUP15 SUB DUP3 ADD SLT ISZERO PUSH2 0x301 JUMPI DUP11 DUP12 REVERT JUMPDEST PUSH1 0x40 DUP1 MLOAD PUSH1 0x60 DUP2 ADD DUP2 DUP2 LT DUP12 DUP3 GT OR ISZERO PUSH2 0x317 JUMPI INVALID JUMPDEST DUP3 MSTORE PUSH2 0x324 DUP5 DUP14 ADD PUSH2 0x243 JUMP JUMPDEST DUP2 MSTORE DUP2 DUP5 ADD CALLDATALOAD DUP13 DUP3 ADD MSTORE PUSH1 0x60 DUP5 ADD CALLDATALOAD DUP11 DUP2 GT ISZERO PUSH2 0x33F JUMPI DUP14 DUP15 REVERT JUMPDEST DUP1 DUP6 ADD SWAP5 POP POP DUP15 PUSH1 0x3F DUP6 ADD SLT PUSH2 0x353 JUMPI DUP13 DUP14 REVERT JUMPDEST DUP12 DUP5 ADD CALLDATALOAD DUP11 DUP2 GT ISZERO PUSH2 0x361 JUMPI INVALID JUMPDEST PUSH2 0x371 DUP14 DUP6 PUSH1 0x1F DUP5 ADD AND ADD PUSH2 0x485 JUMP JUMPDEST SWAP4 POP DUP1 DUP5 MSTORE DUP16 DUP4 DUP3 DUP8 ADD ADD GT ISZERO PUSH2 0x386 JUMPI DUP14 DUP15 REVERT JUMPDEST DUP1 DUP4 DUP7 ADD DUP15 DUP7 ADD CALLDATACOPY DUP4 ADD DUP13 ADD DUP14 SWAP1 MSTORE SWAP1 DUP2 ADD SWAP2 SWAP1 SWAP2 MSTORE DUP6 MSTORE POP SWAP3 DUP8 ADD SWAP3 SWAP1 DUP8 ADD SWAP1 PUSH1 0x1 ADD PUSH2 0x2E1 JUMP JUMPDEST POP SWAP1 SWAP10 SWAP9 POP POP POP POP POP POP POP POP POP JUMP JUMPDEST PUSH1 0x0 DUP3 MLOAD PUSH2 0x3D0 DUP2 DUP5 PUSH1 0x20 DUP8 ADD PUSH2 0x4A9 JUMP JUMPDEST SWAP2 SWAP1 SWAP2 ADD SWAP3 SWAP2 POP POP JUMP JUMPDEST SWAP1 DUP2 MSTORE PUSH1 0x20 ADD SWAP1 JUMP JUMPDEST PUSH1 0x0 PUSH1 0x40 DUP1 DUP4 ADD DUP6 DUP5 MSTORE PUSH1 0x20 DUP3 DUP2 DUP7 ADD MSTORE DUP2 DUP7 MLOAD DUP1 DUP5 MSTORE PUSH1 0x60 SWAP4 POP DUP4 DUP8 ADD SWAP2 POP DUP4 DUP4 DUP3 MUL DUP9 ADD ADD DUP4 DUP10 ADD DUP8 JUMPDEST DUP4 DUP2 LT ISZERO PUSH2 0x475 JUMPI DUP10 DUP4 SUB PUSH1 0x5F NOT ADD DUP6 MSTORE DUP2 MLOAD DUP1 MLOAD ISZERO ISZERO DUP5 MSTORE DUP7 DUP2 ADD MLOAD DUP8 DUP6 ADD MSTORE DUP9 ADD MLOAD DUP9 DUP5 ADD DUP9 SWAP1 MSTORE DUP1 MLOAD DUP9 DUP6 ADD DUP2 SWAP1 MSTORE PUSH1 0x80 PUSH2 0x452 DUP3 DUP3 DUP9 ADD DUP6 DUP13 ADD PUSH2 0x4A9 JUMP JUMPDEST SWAP7 DUP9 ADD SWAP7 PUSH1 0x1F SWAP2 SWAP1 SWAP2 ADD PUSH1 0x1F NOT AND SWAP5 SWAP1 SWAP5 ADD SWAP1 SWAP4 ADD SWAP3 POP SWAP1 DUP6 ADD SWAP1 PUSH1 0x1 ADD PUSH2 0x40F JUMP JUMPDEST POP SWAP1 SWAP11 SWAP10 POP POP POP POP POP POP POP POP POP POP JUMP JUMPDEST PUSH1 0x40 MLOAD DUP2 DUP2 ADD PUSH8 0xFFFFFFFFFFFFFFFF DUP2 GT DUP3 DUP3 LT OR ISZERO PUSH2 0x4A1 JUMPI INVALID JUMPDEST PUSH1 0x40 MSTORE SWAP2 SWAP1 POP JUMP JUMPDEST PUSH1 0x0 JUMPDEST DUP4 DUP2 LT ISZERO PUSH2 0x4C4 JUMPI DUP2 DUP2 ADD MLOAD DUP4 DUP3 ADD MSTORE PUSH1 0x20 ADD PUSH2 0x4AC JUMP JUMPDEST DUP4 DUP2 GT ISZERO PUSH2 0x4D3 JUMPI PUSH1 0x0 DUP5 DUP5 ADD MSTORE JUMPDEST POP POP POP POP JUMP INVALID LOG2 PUSH5 0x6970667358 0x22 SLT KECCAK256 SIGNEXTEND 0xCD 0x5C MUL 0x4D PUSH28 0x6E4AF27D51DBECB21538180CAF4269A84D99536F64DEC1DE5FBD6473 PUSH16 0x6C634300070600330000000000000000 "},"gasEstimates":{"creation":{"codeDepositCost":"259000","executionCost":"300","totalCost":"259300"},"external":{"getCurrentBlockTimestamp()":"205","getEthBalance(address)":"1123","multicall((address,uint256,bytes)[])":"infinite"}},"methodIdentifiers":{"getCurrentBlockTimestamp()":"0f28c97d","getEthBalance(address)":"4d2301cc","multicall((address,uint256,bytes)[])":"1749e1e3"}},"storageLayout":{"storage":[],"types":null},"userdoc":{"kind":"user","methods":{},"notice":"A fork of Multicall2 specifically tailored for the SkyX Interface","version":1}}}}