{
  "_format": "hh-sol-artifact-1",
  "contractName": "MockTimeNonfungiblePositionManager",
  "sourceName": "contracts/test/MockTimeNonfungiblePositionManager.sol",
  "abi": [
    {
      "inputs": [
        {
          "internalType": "address",
          "name": "_factory",
          "type": "address"
        },
        {
          "internalType": "address",
          "name": "_WETH9",
          "type": "address"
        },
        {
          "internalType": "address",
          "name": "_tokenDescriptor",
          "type": "address"
        }
      ],
      "stateMutability": "nonpayable",
      "type": "constructor"
    },
    {
      "anonymous": false,
      "inputs": [
        {
          "indexed": true,
          "internalType": "address",
          "name": "owner",
          "type": "address"
        },
        {
          "indexed": true,
          "internalType": "address",
          "name": "approved",
          "type": "address"
        },
        {
          "indexed": true,
          "internalType": "uint256",
          "name": "tokenId",
          "type": "uint256"
        }
      ],
      "name": "Approval",
      "type": "event"
    },
    {
      "anonymous": false,
      "inputs": [
        {
          "indexed": true,
          "internalType": "address",
          "name": "owner",
          "type": "address"
        },
        {
          "indexed": true,
          "internalType": "address",
          "name": "operator",
          "type": "address"
        },
        {
          "indexed": false,
          "internalType": "bool",
          "name": "approved",
          "type": "bool"
        }
      ],
      "name": "ApprovalForAll",
      "type": "event"
    },
    {
      "anonymous": false,
      "inputs": [
        {
          "indexed": true,
          "internalType": "uint256",
          "name": "tokenId",
          "type": "uint256"
        },
        {
          "indexed": false,
          "internalType": "address",
          "name": "recipient",
          "type": "address"
        },
        {
          "indexed": false,
          "internalType": "uint256",
          "name": "amount0",
          "type": "uint256"
        },
        {
          "indexed": false,
          "internalType": "uint256",
          "name": "amount1",
          "type": "uint256"
        }
      ],
      "name": "Collect",
      "type": "event"
    },
    {
      "anonymous": false,
      "inputs": [
        {
          "indexed": true,
          "internalType": "uint256",
          "name": "tokenId",
          "type": "uint256"
        },
        {
          "indexed": false,
          "internalType": "uint128",
          "name": "liquidity",
          "type": "uint128"
        },
        {
          "indexed": false,
          "internalType": "uint256",
          "name": "amount0",
          "type": "uint256"
        },
        {
          "indexed": false,
          "internalType": "uint256",
          "name": "amount1",
          "type": "uint256"
        }
      ],
      "name": "DecreaseLiquidity",
      "type": "event"
    },
    {
      "anonymous": false,
      "inputs": [
        {
          "indexed": true,
          "internalType": "uint256",
          "name": "tokenId",
          "type": "uint256"
        },
        {
          "indexed": false,
          "internalType": "uint128",
          "name": "liquidity",
          "type": "uint128"
        },
        {
          "indexed": false,
          "internalType": "uint256",
          "name": "amount0",
          "type": "uint256"
        },
        {
          "indexed": false,
          "internalType": "uint256",
          "name": "amount1",
          "type": "uint256"
        }
      ],
      "name": "IncreaseLiquidity",
      "type": "event"
    },
    {
      "anonymous": false,
      "inputs": [
        {
          "indexed": true,
          "internalType": "address",
          "name": "from",
          "type": "address"
        },
        {
          "indexed": true,
          "internalType": "address",
          "name": "to",
          "type": "address"
        },
        {
          "indexed": true,
          "internalType": "uint256",
          "name": "tokenId",
          "type": "uint256"
        }
      ],
      "name": "Transfer",
      "type": "event"
    },
    {
      "inputs": [],
      "name": "DOMAIN_SEPARATOR",
      "outputs": [
        {
          "internalType": "bytes32",
          "name": "",
          "type": "bytes32"
        }
      ],
      "stateMutability": "view",
      "type": "function"
    },
    {
      "inputs": [],
      "name": "PERMIT_TYPEHASH",
      "outputs": [
        {
          "internalType": "bytes32",
          "name": "",
          "type": "bytes32"
        }
      ],
      "stateMutability": "view",
      "type": "function"
    },
    {
      "inputs": [],
      "name": "WETH9",
      "outputs": [
        {
          "internalType": "address",
          "name": "",
          "type": "address"
        }
      ],
      "stateMutability": "view",
      "type": "function"
    },
    {
      "inputs": [
        {
          "internalType": "address",
          "name": "to",
          "type": "address"
        },
        {
          "internalType": "uint256",
          "name": "tokenId",
          "type": "uint256"
        }
      ],
      "name": "approve",
      "outputs": [],
      "stateMutability": "nonpayable",
      "type": "function"
    },
    {
      "inputs": [
        {
          "internalType": "address",
          "name": "owner",
          "type": "address"
        }
      ],
      "name": "balanceOf",
      "outputs": [
        {
          "internalType": "uint256",
          "name": "",
          "type": "uint256"
        }
      ],
      "stateMutability": "view",
      "type": "function"
    },
    {
      "inputs": [],
      "name": "baseURI",
      "outputs": [
        {
          "internalType": "string",
          "name": "",
          "type": "string"
        }
      ],
      "stateMutability": "pure",
      "type": "function"
    },
    {
      "inputs": [
        {
          "internalType": "uint256",
          "name": "tokenId",
          "type": "uint256"
        }
      ],
      "name": "burn",
      "outputs": [],
      "stateMutability": "payable",
      "type": "function"
    },
    {
      "inputs": [
        {
          "components": [
            {
              "internalType": "uint256",
              "name": "tokenId",
              "type": "uint256"
            },
            {
              "internalType": "address",
              "name": "recipient",
              "type": "address"
            },
            {
              "internalType": "uint128",
              "name": "amount0Max",
              "type": "uint128"
            },
            {
              "internalType": "uint128",
              "name": "amount1Max",
              "type": "uint128"
            }
          ],
          "internalType": "struct INonfungiblePositionManager.CollectParams",
          "name": "params",
          "type": "tuple"
        }
      ],
      "name": "collect",
      "outputs": [
        {
          "internalType": "uint256",
          "name": "amount0",
          "type": "uint256"
        },
        {
          "internalType": "uint256",
          "name": "amount1",
          "type": "uint256"
        }
      ],
      "stateMutability": "payable",
      "type": "function"
    },
    {
      "inputs": [
        {
          "internalType": "address",
          "name": "token0",
          "type": "address"
        },
        {
          "internalType": "address",
          "name": "token1",
          "type": "address"
        },
        {
          "internalType": "uint24",
          "name": "fee",
          "type": "uint24"
        },
        {
          "internalType": "uint160",
          "name": "sqrtPriceX96",
          "type": "uint160"
        }
      ],
      "name": "createAndInitializePoolIfNecessary",
      "outputs": [
        {
          "internalType": "address",
          "name": "pool",
          "type": "address"
        }
      ],
      "stateMutability": "payable",
      "type": "function"
    },
    {
      "inputs": [
        {
          "components": [
            {
              "internalType": "uint256",
              "name": "tokenId",
              "type": "uint256"
            },
            {
              "internalType": "uint128",
              "name": "liquidity",
              "type": "uint128"
            },
            {
              "internalType": "uint256",
              "name": "amount0Min",
              "type": "uint256"
            },
            {
              "internalType": "uint256",
              "name": "amount1Min",
              "type": "uint256"
            },
            {
              "internalType": "uint256",
              "name": "deadline",
              "type": "uint256"
            }
          ],
          "internalType": "struct INonfungiblePositionManager.DecreaseLiquidityParams",
          "name": "params",
          "type": "tuple"
        }
      ],
      "name": "decreaseLiquidity",
      "outputs": [
        {
          "internalType": "uint256",
          "name": "amount0",
          "type": "uint256"
        },
        {
          "internalType": "uint256",
          "name": "amount1",
          "type": "uint256"
        }
      ],
      "stateMutability": "payable",
      "type": "function"
    },
    {
      "inputs": [],
      "name": "factory",
      "outputs": [
        {
          "internalType": "address",
          "name": "",
          "type": "address"
        }
      ],
      "stateMutability": "view",
      "type": "function"
    },
    {
      "inputs": [
        {
          "internalType": "uint256",
          "name": "tokenId",
          "type": "uint256"
        }
      ],
      "name": "getApproved",
      "outputs": [
        {
          "internalType": "address",
          "name": "",
          "type": "address"
        }
      ],
      "stateMutability": "view",
      "type": "function"
    },
    {
      "inputs": [
        {
          "components": [
            {
              "internalType": "uint256",
              "name": "tokenId",
              "type": "uint256"
            },
            {
              "internalType": "uint256",
              "name": "amount0Desired",
              "type": "uint256"
            },
            {
              "internalType": "uint256",
              "name": "amount1Desired",
              "type": "uint256"
            },
            {
              "internalType": "uint256",
              "name": "amount0Min",
              "type": "uint256"
            },
            {
              "internalType": "uint256",
              "name": "amount1Min",
              "type": "uint256"
            },
            {
              "internalType": "uint256",
              "name": "deadline",
              "type": "uint256"
            }
          ],
          "internalType": "struct INonfungiblePositionManager.IncreaseLiquidityParams",
          "name": "params",
          "type": "tuple"
        }
      ],
      "name": "increaseLiquidity",
      "outputs": [
        {
          "internalType": "uint128",
          "name": "liquidity",
          "type": "uint128"
        },
        {
          "internalType": "uint256",
          "name": "amount0",
          "type": "uint256"
        },
        {
          "internalType": "uint256",
          "name": "amount1",
          "type": "uint256"
        }
      ],
      "stateMutability": "payable",
      "type": "function"
    },
    {
      "inputs": [
        {
          "internalType": "address",
          "name": "owner",
          "type": "address"
        },
        {
          "internalType": "address",
          "name": "operator",
          "type": "address"
        }
      ],
      "name": "isApprovedForAll",
      "outputs": [
        {
          "internalType": "bool",
          "name": "",
          "type": "bool"
        }
      ],
      "stateMutability": "view",
      "type": "function"
    },
    {
      "inputs": [
        {
          "components": [
            {
              "internalType": "address",
              "name": "token0",
              "type": "address"
            },
            {
              "internalType": "address",
              "name": "token1",
              "type": "address"
            },
            {
              "internalType": "uint24",
              "name": "fee",
              "type": "uint24"
            },
            {
              "internalType": "int24",
              "name": "tickLower",
              "type": "int24"
            },
            {
              "internalType": "int24",
              "name": "tickUpper",
              "type": "int24"
            },
            {
              "internalType": "uint256",
              "name": "amount0Desired",
              "type": "uint256"
            },
            {
              "internalType": "uint256",
              "name": "amount1Desired",
              "type": "uint256"
            },
            {
              "internalType": "uint256",
              "name": "amount0Min",
              "type": "uint256"
            },
            {
              "internalType": "uint256",
              "name": "amount1Min",
              "type": "uint256"
            },
            {
              "internalType": "address",
              "name": "recipient",
              "type": "address"
            },
            {
              "internalType": "uint256",
              "name": "deadline",
              "type": "uint256"
            }
          ],
          "internalType": "struct INonfungiblePositionManager.MintParams",
          "name": "params",
          "type": "tuple"
        }
      ],
      "name": "mint",
      "outputs": [
        {
          "internalType": "uint256",
          "name": "tokenId",
          "type": "uint256"
        },
        {
          "internalType": "uint128",
          "name": "liquidity",
          "type": "uint128"
        },
        {
          "internalType": "uint256",
          "name": "amount0",
          "type": "uint256"
        },
        {
          "internalType": "uint256",
          "name": "amount1",
          "type": "uint256"
        }
      ],
      "stateMutability": "payable",
      "type": "function"
    },
    {
      "inputs": [
        {
          "internalType": "bytes[]",
          "name": "data",
          "type": "bytes[]"
        }
      ],
      "name": "multicall",
      "outputs": [
        {
          "internalType": "bytes[]",
          "name": "results",
          "type": "bytes[]"
        }
      ],
      "stateMutability": "payable",
      "type": "function"
    },
    {
      "inputs": [],
      "name": "name",
      "outputs": [
        {
          "internalType": "string",
          "name": "",
          "type": "string"
        }
      ],
      "stateMutability": "view",
      "type": "function"
    },
    {
      "inputs": [
        {
          "internalType": "uint256",
          "name": "tokenId",
          "type": "uint256"
        }
      ],
      "name": "ownerOf",
      "outputs": [
        {
          "internalType": "address",
          "name": "",
          "type": "address"
        }
      ],
      "stateMutability": "view",
      "type": "function"
    },
    {
      "inputs": [
        {
          "internalType": "address",
          "name": "spender",
          "type": "address"
        },
        {
          "internalType": "uint256",
          "name": "tokenId",
          "type": "uint256"
        },
        {
          "internalType": "uint256",
          "name": "deadline",
          "type": "uint256"
        },
        {
          "internalType": "uint8",
          "name": "v",
          "type": "uint8"
        },
        {
          "internalType": "bytes32",
          "name": "r",
          "type": "bytes32"
        },
        {
          "internalType": "bytes32",
          "name": "s",
          "type": "bytes32"
        }
      ],
      "name": "permit",
      "outputs": [],
      "stateMutability": "payable",
      "type": "function"
    },
    {
      "inputs": [],
      "name": "poolDeployer",
      "outputs": [
        {
          "internalType": "address",
          "name": "",
          "type": "address"
        }
      ],
      "stateMutability": "view",
      "type": "function"
    },
    {
      "inputs": [
        {
          "internalType": "uint256",
          "name": "tokenId",
          "type": "uint256"
        }
      ],
      "name": "positions",
      "outputs": [
        {
          "internalType": "uint96",
          "name": "nonce",
          "type": "uint96"
        },
        {
          "internalType": "address",
          "name": "operator",
          "type": "address"
        },
        {
          "internalType": "address",
          "name": "token0",
          "type": "address"
        },
        {
          "internalType": "address",
          "name": "token1",
          "type": "address"
        },
        {
          "internalType": "uint24",
          "name": "fee",
          "type": "uint24"
        },
        {
          "internalType": "int24",
          "name": "tickLower",
          "type": "int24"
        },
        {
          "internalType": "int24",
          "name": "tickUpper",
          "type": "int24"
        },
        {
          "internalType": "uint128",
          "name": "liquidity",
          "type": "uint128"
        },
        {
          "internalType": "uint256",
          "name": "feeGrowthInside0LastX128",
          "type": "uint256"
        },
        {
          "internalType": "uint256",
          "name": "feeGrowthInside1LastX128",
          "type": "uint256"
        },
        {
          "internalType": "uint128",
          "name": "tokensOwed0",
          "type": "uint128"
        },
        {
          "internalType": "uint128",
          "name": "tokensOwed1",
          "type": "uint128"
        }
      ],
      "stateMutability": "view",
      "type": "function"
    },
    {
      "inputs": [],
      "name": "refundETH",
      "outputs": [],
      "stateMutability": "payable",
      "type": "function"
    },
    {
      "inputs": [
        {
          "internalType": "address",
          "name": "from",
          "type": "address"
        },
        {
          "internalType": "address",
          "name": "to",
          "type": "address"
        },
        {
          "internalType": "uint256",
          "name": "tokenId",
          "type": "uint256"
        }
      ],
      "name": "safeTransferFrom",
      "outputs": [],
      "stateMutability": "nonpayable",
      "type": "function"
    },
    {
      "inputs": [
        {
          "internalType": "address",
          "name": "from",
          "type": "address"
        },
        {
          "internalType": "address",
          "name": "to",
          "type": "address"
        },
        {
          "internalType": "uint256",
          "name": "tokenId",
          "type": "uint256"
        },
        {
          "internalType": "bytes",
          "name": "_data",
          "type": "bytes"
        }
      ],
      "name": "safeTransferFrom",
      "outputs": [],
      "stateMutability": "nonpayable",
      "type": "function"
    },
    {
      "inputs": [
        {
          "internalType": "address",
          "name": "token",
          "type": "address"
        },
        {
          "internalType": "uint256",
          "name": "value",
          "type": "uint256"
        },
        {
          "internalType": "uint256",
          "name": "deadline",
          "type": "uint256"
        },
        {
          "internalType": "uint8",
          "name": "v",
          "type": "uint8"
        },
        {
          "internalType": "bytes32",
          "name": "r",
          "type": "bytes32"
        },
        {
          "internalType": "bytes32",
          "name": "s",
          "type": "bytes32"
        }
      ],
      "name": "selfPermit",
      "outputs": [],
      "stateMutability": "payable",
      "type": "function"
    },
    {
      "inputs": [
        {
          "internalType": "address",
          "name": "token",
          "type": "address"
        },
        {
          "internalType": "uint256",
          "name": "nonce",
          "type": "uint256"
        },
        {
          "internalType": "uint256",
          "name": "expiry",
          "type": "uint256"
        },
        {
          "internalType": "uint8",
          "name": "v",
          "type": "uint8"
        },
        {
          "internalType": "bytes32",
          "name": "r",
          "type": "bytes32"
        },
        {
          "internalType": "bytes32",
          "name": "s",
          "type": "bytes32"
        }
      ],
      "name": "selfPermitAllowed",
      "outputs": [],
      "stateMutability": "payable",
      "type": "function"
    },
    {
      "inputs": [
        {
          "internalType": "address",
          "name": "token",
          "type": "address"
        },
        {
          "internalType": "uint256",
          "name": "nonce",
          "type": "uint256"
        },
        {
          "internalType": "uint256",
          "name": "expiry",
          "type": "uint256"
        },
        {
          "internalType": "uint8",
          "name": "v",
          "type": "uint8"
        },
        {
          "internalType": "bytes32",
          "name": "r",
          "type": "bytes32"
        },
        {
          "internalType": "bytes32",
          "name": "s",
          "type": "bytes32"
        }
      ],
      "name": "selfPermitAllowedIfNecessary",
      "outputs": [],
      "stateMutability": "payable",
      "type": "function"
    },
    {
      "inputs": [
        {
          "internalType": "address",
          "name": "token",
          "type": "address"
        },
        {
          "internalType": "uint256",
          "name": "value",
          "type": "uint256"
        },
        {
          "internalType": "uint256",
          "name": "deadline",
          "type": "uint256"
        },
        {
          "internalType": "uint8",
          "name": "v",
          "type": "uint8"
        },
        {
          "internalType": "bytes32",
          "name": "r",
          "type": "bytes32"
        },
        {
          "internalType": "bytes32",
          "name": "s",
          "type": "bytes32"
        }
      ],
      "name": "selfPermitIfNecessary",
      "outputs": [],
      "stateMutability": "payable",
      "type": "function"
    },
    {
      "inputs": [
        {
          "internalType": "address",
          "name": "operator",
          "type": "address"
        },
        {
          "internalType": "bool",
          "name": "approved",
          "type": "bool"
        }
      ],
      "name": "setApprovalForAll",
      "outputs": [],
      "stateMutability": "nonpayable",
      "type": "function"
    },
    {
      "inputs": [
        {
          "internalType": "uint256",
          "name": "_time",
          "type": "uint256"
        }
      ],
      "name": "setTime",
      "outputs": [],
      "stateMutability": "nonpayable",
      "type": "function"
    },
    {
      "inputs": [
        {
          "internalType": "uint256",
          "name": "amount0Owed",
          "type": "uint256"
        },
        {
          "internalType": "uint256",
          "name": "amount1Owed",
          "type": "uint256"
        },
        {
          "internalType": "bytes",
          "name": "data",
          "type": "bytes"
        }
      ],
      "name": "skyxV3MintCallback",
      "outputs": [],
      "stateMutability": "nonpayable",
      "type": "function"
    },
    {
      "inputs": [
        {
          "internalType": "bytes4",
          "name": "interfaceId",
          "type": "bytes4"
        }
      ],
      "name": "supportsInterface",
      "outputs": [
        {
          "internalType": "bool",
          "name": "",
          "type": "bool"
        }
      ],
      "stateMutability": "view",
      "type": "function"
    },
    {
      "inputs": [
        {
          "internalType": "address",
          "name": "token",
          "type": "address"
        },
        {
          "internalType": "uint256",
          "name": "amountMinimum",
          "type": "uint256"
        },
        {
          "internalType": "address",
          "name": "recipient",
          "type": "address"
        }
      ],
      "name": "sweepToken",
      "outputs": [],
      "stateMutability": "payable",
      "type": "function"
    },
    {
      "inputs": [],
      "name": "symbol",
      "outputs": [
        {
          "internalType": "string",
          "name": "",
          "type": "string"
        }
      ],
      "stateMutability": "view",
      "type": "function"
    },
    {
      "inputs": [
        {
          "internalType": "uint256",
          "name": "index",
          "type": "uint256"
        }
      ],
      "name": "tokenByIndex",
      "outputs": [
        {
          "internalType": "uint256",
          "name": "",
          "type": "uint256"
        }
      ],
      "stateMutability": "view",
      "type": "function"
    },
    {
      "inputs": [
        {
          "internalType": "address",
          "name": "owner",
          "type": "address"
        },
        {
          "internalType": "uint256",
          "name": "index",
          "type": "uint256"
        }
      ],
      "name": "tokenOfOwnerByIndex",
      "outputs": [
        {
          "internalType": "uint256",
          "name": "",
          "type": "uint256"
        }
      ],
      "stateMutability": "view",
      "type": "function"
    },
    {
      "inputs": [
        {
          "internalType": "uint256",
          "name": "tokenId",
          "type": "uint256"
        }
      ],
      "name": "tokenURI",
      "outputs": [
        {
          "internalType": "string",
          "name": "",
          "type": "string"
        }
      ],
      "stateMutability": "view",
      "type": "function"
    },
    {
      "inputs": [],
      "name": "totalSupply",
      "outputs": [
        {
          "internalType": "uint256",
          "name": "",
          "type": "uint256"
        }
      ],
      "stateMutability": "view",
      "type": "function"
    },
    {
      "inputs": [
        {
          "internalType": "address",
          "name": "from",
          "type": "address"
        },
        {
          "internalType": "address",
          "name": "to",
          "type": "address"
        },
        {
          "internalType": "uint256",
          "name": "tokenId",
          "type": "uint256"
        }
      ],
      "name": "transferFrom",
      "outputs": [],
      "stateMutability": "nonpayable",
      "type": "function"
    },
    {
      "inputs": [
        {
          "internalType": "uint256",
          "name": "amountMinimum",
          "type": "uint256"
        },
        {
          "internalType": "address",
          "name": "recipient",
          "type": "address"
        }
      ],
      "name": "unwrapWETH9",
      "outputs": [],
      "stateMutability": "payable",
      "type": "function"
    },
    {
      "stateMutability": "payable",
      "type": "receive"
    }
  ],
  "bytecode": "0x610140604052600d80546001600160b01b0319166001176001600160b01b0316600160b01b1790553480156200003457600080fd5b5060405162005e9938038062005e99833981016040819052620000579162000362565b82828282826040518060400160405280601881526020017f536b795820563320506f736974696f6e73204e46542d563100000000000000008152506040518060400160405280600b81526020016a534b59582d56332d504f5360a81b815250604051806040016040528060018152602001603160f81b8152508282620000ea6301ffc9a760e01b6200021460201b60201c565b8151620000ff90600690602085019062000299565b5080516200011590600790602084019062000299565b50620001286380ac58cd60e01b62000214565b6200013a635b5e139f60e01b62000214565b6200014c63780e9d6360e01b62000214565b5050825160209384012060805280519083012060a052506001600160601b0319606084811b821660c05283901b1660e0526040805163188c824d60e11b815290516001600160a01b03851692633119049a9260048082019391829003018186803b158015620001ba57600080fd5b505afa158015620001cf573d6000803e3d6000fd5b505050506040513d6020811015620001e657600080fd5b50516001600160601b0319606091821b81166101005293901b9092166101205250620003ab95505050505050565b6001600160e01b0319808216141562000274576040805162461bcd60e51b815260206004820152601c60248201527f4552433136353a20696e76616c696420696e7465726661636520696400000000604482015290519081900360640190fd5b6001600160e01b0319166000908152602081905260409020805460ff19166001179055565b828054600181600116156101000203166002900490600052602060002090601f016020900481019282620002d157600085556200031c565b82601f10620002ec57805160ff19168380011785556200031c565b828001600101855582156200031c579182015b828111156200031c578251825591602001919060010190620002ff565b506200032a9291506200032e565b5090565b5b808211156200032a57600081556001016200032f565b80516001600160a01b03811681146200035d57600080fd5b919050565b60008060006060848603121562000377578283fd5b620003828462000345565b9250620003926020850162000345565b9150620003a26040850162000345565b90509250925092565b60805160a05160c05160601c60e05160601c6101005160601c6101205160601c615a5c6200043d60003980612853525080610a5052806114105280612a6b5280612bed52806133f252508061024f528061167d528061176852806117f05280613c6e5280613cb45280613d28525080610d705280610e3752806128065250806114785250806114575250615a5c6000f3fe60806040526004361061023f5760003560e01c80634f6ccce71161012e578063ac9650d8116100ab578063df2ab5bb1161006f578063df2ab5bb14610699578063e985e9c5146106ac578063f3995c67146106cc578063fa585a12146106df578063fc6f7865146106ff576102af565b8063ac9650d814610611578063b88d4fde14610631578063c2e3140a14610651578063c45a015514610664578063c87b56dd14610679576102af565b806388316456116100f2578063883164561461056e57806395d89b411461059157806399fbab88146105a6578063a22cb465146105de578063a4a78f0c146105fe576102af565b80634f6ccce7146104e65780636352211e146105065780636c0360eb1461052657806370a082311461053b5780637ac2ff7b1461055b576102af565b80632f745c59116101bc57806342842e0e1161018057806342842e0e1461047857806342966c68146104985780634659a494146104ab57806349404b7c146104be5780634aa4a4fc146104d1576102af565b80632f745c59146103f957806330adf81f146104195780633119049a1461042e5780633644e515146104435780633beb26c414610458576102af565b806312210e8a1161020357806312210e8a1461037a57806313ead5621461038257806318160ddd14610395578063219f5d17146103b757806323b872dd146103d9576102af565b806301ffc9a7146102b457806306fdde03146102ea578063081812fc1461030c578063095ea7b3146103395780630c49ccbe14610359576102af565b366102af57336001600160a01b037f000000000000000000000000000000000000000000000000000000000000000016146102ad576040805162461bcd60e51b81526020600482015260096024820152684e6f7420574554483960b81b604482015290519081900360640190fd5b005b600080fd5b3480156102c057600080fd5b506102d46102cf366004614f3d565b610712565b6040516102e1919061547e565b60405180910390f35b3480156102f657600080fd5b506102ff610735565b6040516102e191906154d1565b34801561031857600080fd5b5061032c610327366004615237565b6107cb565b6040516102e19190615361565b34801561034557600080fd5b506102ad610354366004614e07565b61081e565b61036c610367366004615002565b6108f4565b6040516102e1929190615658565b6102ad610d3c565b61032c610390366004614c9a565b610d4e565b3480156103a157600080fd5b506103aa611042565b6040516102e19190615489565b6103ca6103c5366004615013565b611053565b6040516102e193929190615613565b3480156103e557600080fd5b506102ad6103f4366004614cf3565b611368565b34801561040557600080fd5b506103aa610414366004614e07565b6113bf565b34801561042557600080fd5b506103aa6113ea565b34801561043a57600080fd5b5061032c61140e565b34801561044f57600080fd5b506103aa611432565b34801561046457600080fd5b506102ad610473366004615237565b6114f0565b34801561048457600080fd5b506102ad610493366004614cf3565b6114f5565b6102ad6104a6366004615237565b611510565b6102ad6104b9366004614e73565b6115df565b6102ad6104cc36600461524f565b611679565b3480156104dd57600080fd5b5061032c6117ee565b3480156104f257600080fd5b506103aa610501366004615237565b611812565b34801561051257600080fd5b5061032c610521366004615237565b611828565b34801561053257600080fd5b506102ff611850565b34801561054757600080fd5b506103aa610556366004614c46565b611855565b6102ad610569366004614e73565b6118bd565b61058161057c3660046150cf565b611caf565b6040516102e19493929190615634565b34801561059d57600080fd5b506102ff6121c7565b3480156105b257600080fd5b506105c66105c1366004615237565b612228565b6040516102e19c9b9a99989796959493929190615666565b3480156105ea57600080fd5b506102ad6105f9366004614dda565b612439565b6102ad61060c366004614e73565b61253e565b61062461061f366004614ece565b6125d7565b6040516102e1919061541e565b34801561063d57600080fd5b506102ad61064c366004614d33565b612717565b6102ad61065f366004614e73565b612775565b34801561067057600080fd5b5061032c612804565b34801561068557600080fd5b506102ff610694366004615237565b612828565b6102ad6106a7366004614e32565b6128de565b3480156106b857600080fd5b506102d46106c7366004614c62565b6129b6565b6102ad6106da366004614e73565b6129e4565b3480156106eb57600080fd5b506102ad6106fa366004615296565b612a56565b61036c61070d366004614feb565b612ad4565b6001600160e01b0319811660009081526020819052604090205460ff165b919050565b60068054604080516020601f60026000196101006001881615020190951694909404938401819004810282018101909252828152606093909290918301828280156107c15780601f10610796576101008083540402835291602001916107c1565b820191906000526020600020905b8154815290600101906020018083116107a457829003601f168201915b5050505050905090565b60006107d682612f9f565b6107fb5760405162461bcd60e51b81526004016107f29061550a565b60405180910390fd5b506000908152600c6020526040902054600160601b90046001600160a01b031690565b600061082982611828565b9050806001600160a01b0316836001600160a01b0316141561087c5760405162461bcd60e51b81526004018080602001828103825260218152602001806159d56021913960400191505060405180910390fd5b806001600160a01b031661088e612fac565b6001600160a01b031614806108aa57506108aa816106c7612fac565b6108e55760405162461bcd60e51b81526004018080602001828103825260388152602001806158ff6038913960400191505060405180910390fd5b6108ef8383612fb0565b505050565b60008082356109033382613026565b61091f5760405162461bcd60e51b81526004016107f2906154e4565b83608001358061092d6130c2565b1115610976576040805162461bcd60e51b8152602060048201526013602482015272151c985b9cd858dd1a5bdb881d1bdbc81bdb19606a1b604482015290519081900360640190fd5b600061098860408701602088016150e1565b6001600160801b03161161099b57600080fd5b84356000908152600c602090815260409182902060018101549092600160801b9091046001600160801b0316916109d69189019089016150e1565b6001600160801b0316816001600160801b031610156109f457600080fd5b6001828101546001600160501b03166000908152600b60209081526040808320815160608101835281546001600160a01b039081168252919095015490811692850192909252600160a01b90910462ffffff1690830152610a757f0000000000000000000000000000000000000000000000000000000000000000836130c8565b60018501549091506001600160a01b0382169063a34123a790600160501b8104600290810b91600160681b9004900b610ab460408e0160208f016150e1565b6040518463ffffffff1660e01b8152600401610ad2939291906154ab565b6040805180830381600087803b158015610aeb57600080fd5b505af1158015610aff573d6000803e3d6000fd5b505050506040513d601f19601f82011682018060405250810190610b239190615273565b909850965060408901358810801590610b40575088606001358710155b610b5c5760405162461bcd60e51b81526004016107f290615556565b6001840154600090610b85903090600160501b8104600290810b91600160681b9004900b6131a7565b9050600080836001600160a01b031663514ea4bf846040518263ffffffff1660e01b8152600401610bb69190615489565b60a06040518083038186803b158015610bce57600080fd5b505afa158015610be2573d6000803e3d6000fd5b505050506040513d601f19601f82011682018060405250810190610c06919061512b565b50509250925050610c2b87600201548303876001600160801b0316600160801b6131fc565b6004880180546001600160801b03198116928e016001600160801b039182160181169290921790556003880154610c6c91908303908816600160801b6131fc565b6004880180546001600160801b03808216938e01600160801b9283900482160116029190911790556002870182905560038701819055610cb260408d0160208e016150e1565b86038760010160106101000a8154816001600160801b0302191690836001600160801b031602179055508b600001357f26f6a048ee9138f2c0ce266f322cb99228e8d619ae2bff30c67f8dcf9d2377b48d6020016020810190610d1591906150e1565b8d8d604051610d2693929190615613565b60405180910390a2505050505050505050915091565b4715610d4c57610d4c33476132ab565b565b6000836001600160a01b0316856001600160a01b031610610d6e57600080fd5b7f00000000000000000000000000000000000000000000000000000000000000006001600160a01b0316631698ee828686866040518463ffffffff1660e01b815260040180846001600160a01b03168152602001836001600160a01b031681526020018262ffffff168152602001935050505060206040518083038186803b158015610df957600080fd5b505afa158015610e0d573d6000803e3d6000fd5b505050506040513d6020811015610e2357600080fd5b505190506001600160a01b038116610f59577f00000000000000000000000000000000000000000000000000000000000000006001600160a01b031663a16712958686866040518463ffffffff1660e01b815260040180846001600160a01b03168152602001836001600160a01b031681526020018262ffffff1681526020019350505050602060405180830381600087803b158015610ec257600080fd5b505af1158015610ed6573d6000803e3d6000fd5b505050506040513d6020811015610eec57600080fd5b50516040805163f637731d60e01b81526001600160a01b03858116600483015291519293509083169163f637731d9160248082019260009290919082900301818387803b158015610f3c57600080fd5b505af1158015610f50573d6000803e3d6000fd5b5050505061103a565b6000816001600160a01b0316633850c7bd6040518163ffffffff1660e01b815260040160e06040518083038186803b158015610f9457600080fd5b505afa158015610fa8573d6000803e3d6000fd5b505050506040513d60e0811015610fbe57600080fd5b505190506001600160a01b03811661103857816001600160a01b031663f637731d846040518263ffffffff1660e01b815260040180826001600160a01b03168152602001915050600060405180830381600087803b15801561101f57600080fd5b505af1158015611033573d6000803e3d6000fd5b505050505b505b949350505050565b600061104e600261339a565b905090565b60008060008360a00135806110666130c2565b11156110af576040805162461bcd60e51b8152602060048201526013602482015272151c985b9cd858dd1a5bdb881d1bdbc81bdb19606a1b604482015290519081900360640190fd5b84356000908152600c602090815260408083206001808201546001600160501b0381168652600b855283862084516060808201875282546001600160a01b039081168352929094015480831682890190815262ffffff600160a01b9092048216838901908152885161014081018a528451861681529151909416818a0152925116828701523082850152600160501b8304600290810b810b608080850191909152600160681b909404810b900b60a0830152958c013560c0820152938b013560e0850152908a01356101008401528901356101208301529290611191906133a5565b6001870154939a50919850965091506000906111c4903090600160501b8104600290810b91600160681b9004900b6131a7565b9050600080836001600160a01b031663514ea4bf846040518263ffffffff1660e01b81526004016111f59190615489565b60a06040518083038186803b15801561120d57600080fd5b505afa158015611221573d6000803e3d6000fd5b505050506040513d601f19601f82011682018060405250810190611245919061512b565b50509250925050611281866002015483038760010160109054906101000a90046001600160801b03166001600160801b0316600160801b6131fc565b6004870180546001600160801b0380821690930183166001600160801b0319909116179055600387015460018801546112c89291840391600160801b9182900416906131fc565b6004870180546001600160801b03600160801b80830482169094018116840291811691909117909155600288018490556003880183905560018801805483810483168e018316909302929091169190911790556040518b35907f3067048beee31b25b2f1681f88dac838c8bba36af25bfb2b7cf7473a5847e35f90611352908d908d908d90615613565b60405180910390a2505050505050509193909250565b611379611373612fac565b82613026565b6113b45760405162461bcd60e51b81526004018080602001828103825260318152602001806159f66031913960400191505060405180910390fd5b6108ef8383836135e0565b6001600160a01b03821660009081526001602052604081206113e1908361372c565b90505b92915050565b7f49ecf333e5b8c95c40fdafc95c1ad136e8914a8fb55e9dc8bb01eaa83a2df9ad81565b7f000000000000000000000000000000000000000000000000000000000000000081565b60007f8b73c3c69bb8fe3d512ecc4cf759cc79239f7b179b0ffacaa9a75d522b39400f7f00000000000000000000000000000000000000000000000000000000000000007f000000000000000000000000000000000000000000000000000000000000000061149f613738565b3060405160200180868152602001858152602001848152602001838152602001826001600160a01b031681526020019550505050505060405160208183030381529060405280519060200120905090565b600e55565b6108ef83838360405180602001604052806000815250612717565b8061151b3382613026565b6115375760405162461bcd60e51b81526004016107f2906154e4565b6000828152600c602052604090206001810154600160801b90046001600160801b0316158015611572575060048101546001600160801b0316155b801561159057506004810154600160801b90046001600160801b0316155b6115ac5760405162461bcd60e51b81526004016107f2906155ae565b6000838152600c60205260408120818155600181018290556002810182905560038101829055600401556108ef8361373c565b604080516323f2ebc360e21b815233600482015230602482015260448101879052606481018690526001608482015260ff851660a482015260c4810184905260e4810183905290516001600160a01b03881691638fcbaf0c9161010480830192600092919082900301818387803b15801561165957600080fd5b505af115801561166d573d6000803e3d6000fd5b50505050505050505050565b60007f00000000000000000000000000000000000000000000000000000000000000006001600160a01b03166370a08231306040518263ffffffff1660e01b815260040180826001600160a01b0316815260200191505060206040518083038186803b1580156116e857600080fd5b505afa1580156116fc573d6000803e3d6000fd5b505050506040513d602081101561171257600080fd5b5051905082811015611760576040805162461bcd60e51b8152602060048201526012602482015271496e73756666696369656e7420574554483960701b604482015290519081900360640190fd5b80156108ef577f00000000000000000000000000000000000000000000000000000000000000006001600160a01b0316632e1a7d4d826040518263ffffffff1660e01b815260040180828152602001915050600060405180830381600087803b1580156117cc57600080fd5b505af11580156117e0573d6000803e3d6000fd5b505050506108ef82826132ab565b7f000000000000000000000000000000000000000000000000000000000000000081565b600080611820600284613809565b509392505050565b60006113e4826040518060600160405280602981526020016159616029913960029190613827565b606090565b60006001600160a01b03821661189c5760405162461bcd60e51b815260040180806020018281038252602a815260200180615937602a913960400191505060405180910390fd5b6001600160a01b03821660009081526001602052604090206113e49061339a565b836118c66130c2565b111561190a576040805162461bcd60e51b815260206004820152600e60248201526d14195c9b5a5d08195e1c1a5c995960921b604482015290519081900360640190fd5b6000611914611432565b7f49ecf333e5b8c95c40fdafc95c1ad136e8914a8fb55e9dc8bb01eaa83a2df9ad888861194081613834565b604080516020808201969096526001600160a01b03909416848201526060840192909252608083015260a08083018a90528151808403909101815260c08301825280519084012061190160f01b60e084015260e2830194909452610102808301949094528051808303909401845261012290910190528151910120905060006119c887611828565b9050806001600160a01b0316886001600160a01b03161415611a1b5760405162461bcd60e51b81526004018080602001828103825260278152602001806158626027913960400191505060405180910390fd5b611a2481613869565b15611b8c576040805160208082018790528183018690526001600160f81b031960f889901b1660608301528251604181840301815260618301808552630b135d3f60e11b90526065830186815260858401948552815160a585015281516001600160a01b03871695631626ba7e958995919260c59091019185019080838360005b83811015611abd578181015183820152602001611aa5565b50505050905090810190601f168015611aea5780820380516001836020036101000a031916815260200191505b50935050505060206040518083038186803b158015611b0857600080fd5b505afa158015611b1c573d6000803e3d6000fd5b505050506040513d6020811015611b3257600080fd5b50516001600160e01b031916630b135d3f60e11b14611b87576040805162461bcd60e51b815260206004820152600c60248201526b155b985d5d1a1bdc9a5e995960a21b604482015290519081900360640190fd5b611c9b565b600060018387878760405160008152602001604052604051808581526020018460ff1681526020018381526020018281526020019450505050506020604051602081039080840390855afa158015611be8573d6000803e3d6000fd5b5050604051601f1901519150506001600160a01b038116611c44576040805162461bcd60e51b8152602060048201526011602482015270496e76616c6964207369676e617475726560781b604482015290519081900360640190fd5b816001600160a01b0316816001600160a01b031614611c99576040805162461bcd60e51b815260206004820152600c60248201526b155b985d5d1a1bdc9a5e995960a21b604482015290519081900360640190fd5b505b611ca58888612fb0565b5050505050505050565b60008060008084610140013580611cc46130c2565b1115611d0d576040805162461bcd60e51b8152602060048201526013602482015272151c985b9cd858dd1a5bdb881d1bdbc81bdb19606a1b604482015290519081900360640190fd5b604080516101408101909152600090611dd99080611d2e60208b018b614c46565b6001600160a01b03168152602001896020016020810190611d4f9190614c46565b6001600160a01b03168152602001611d6d60608b0160408c0161521d565b62ffffff168152306020820152604001611d8d60808b0160608c01614f65565b60020b8152602001611da560a08b0160808c01614f65565b60020b81526020018960a0013581526020018960c0013581526020018960e0013581526020018961010001358152506133a5565b92975090955093509050611e26611df861014089016101208a01614c46565b600d80546001600160b01b0319811660016001600160b01b039283169081019092161790915597508761386f565b6000611e5130611e3c60808b0160608c01614f65565b611e4c60a08c0160808d01614f65565b6131a7565b9050600080836001600160a01b031663514ea4bf846040518263ffffffff1660e01b8152600401611e829190615489565b60a06040518083038186803b158015611e9a57600080fd5b505afa158015611eae573d6000803e3d6000fd5b505050506040513d601f19601f82011682018060405250810190611ed2919061512b565b505092509250506000611f4b8560405180606001604052808e6000016020810190611efd9190614c46565b6001600160a01b031681526020018e6020016020810190611f1e9190614c46565b6001600160a01b031681526020018e6040016020810190611f3f919061521d565b62ffffff16905261399d565b905060405180610140016040528060006001600160601b0316815260200160006001600160a01b03168152602001826001600160501b031681526020018c6060016020810190611f9b9190614f65565b60020b8152602001611fb360a08e0160808f01614f65565b60020b81526020018a6001600160801b0316815260200184815260200183815260200160006001600160801b0316815260200160006001600160801b0316815250600c60008c815260200190815260200160002060008201518160000160006101000a8154816001600160601b0302191690836001600160601b03160217905550602082015181600001600c6101000a8154816001600160a01b0302191690836001600160a01b0316021790555060408201518160010160006101000a8154816001600160501b0302191690836001600160501b03160217905550606082015181600101600a6101000a81548162ffffff021916908360020b62ffffff160217905550608082015181600101600d6101000a81548162ffffff021916908360020b62ffffff16021790555060a08201518160010160106101000a8154816001600160801b0302191690836001600160801b0316021790555060c0820151816002015560e082015181600301556101008201518160040160006101000a8154816001600160801b0302191690836001600160801b031602179055506101208201518160040160106101000a8154816001600160801b0302191690836001600160801b03160217905550905050897f3067048beee31b25b2f1681f88dac838c8bba36af25bfb2b7cf7473a5847e35f8a8a8a6040516121b293929190615613565b60405180910390a25050505050509193509193565b60078054604080516020601f60026000196101006001881615020190951694909404938401819004810282018101909252828152606093909290918301828280156107c15780601f10610796576101008083540402835291602001916107c1565b6000818152600c6020908152604080832081516101408101835281546001600160601b03811682526001600160a01b03600160601b909104169381019390935260018101546001600160501b038116928401839052600160501b8104600290810b810b810b6060860152600160681b8204810b810b810b60808601526001600160801b03600160801b92839004811660a08701529083015460c0860152600383015460e0860152600490920154808316610100860152041661012083015282918291829182918291829182918291829182918291906123195760405162461bcd60e51b81526004016107f290615584565b6000600b600083604001516001600160501b03166001600160501b031681526020019081526020016000206040518060600160405290816000820160009054906101000a90046001600160a01b03166001600160a01b03166001600160a01b031681526020016001820160009054906101000a90046001600160a01b03166001600160a01b03166001600160a01b031681526020016001820160149054906101000a900462ffffff1662ffffff1662ffffff1681525050905081600001518260200151826000015183602001518460400151866060015187608001518860a001518960c001518a60e001518b61010001518c61012001519d509d509d509d509d509d509d509d509d509d509d509d50505091939597999b5091939597999b565b612441612fac565b6001600160a01b0316826001600160a01b031614156124a7576040805162461bcd60e51b815260206004820152601960248201527f4552433732313a20617070726f766520746f2063616c6c657200000000000000604482015290519081900360640190fd5b80600560006124b4612fac565b6001600160a01b03908116825260208083019390935260409182016000908120918716808252919093529120805460ff1916921515929092179091556124f8612fac565b6001600160a01b03167f17307eab39ab6107e8899845ad3d59bd9653f200f220920489ca2b5937696c318360405180821515815260200191505060405180910390a35050565b60408051636eb1769f60e11b81523360048201523060248201529051600019916001600160a01b0389169163dd62ed3e91604480820192602092909190829003018186803b15801561258f57600080fd5b505afa1580156125a3573d6000803e3d6000fd5b505050506040513d60208110156125b957600080fd5b505110156125cf576125cf8686868686866115df565b505050505050565b60608167ffffffffffffffff811180156125f057600080fd5b5060405190808252806020026020018201604052801561262457816020015b606081526020019060019003908161260f5790505b50905060005b82811015612710576000803086868581811061264257fe5b90506020028101906126549190615700565b604051612662929190615351565b600060405180830381855af49150503d806000811461269d576040519150601f19603f3d011682016040523d82523d6000602084013e6126a2565b606091505b5091509150816126ee576044815110156126bb57600080fd5b600481019050808060200190518101906126d59190614f81565b60405162461bcd60e51b81526004016107f291906154d1565b808484815181106126fb57fe5b6020908102919091010152505060010161262a565b5092915050565b612728612722612fac565b83613026565b6127635760405162461bcd60e51b81526004018080602001828103825260318152602001806159f66031913960400191505060405180910390fd5b61276f84848484613a7f565b50505050565b60408051636eb1769f60e11b8152336004820152306024820152905186916001600160a01b0389169163dd62ed3e91604480820192602092909190829003018186803b1580156127c457600080fd5b505afa1580156127d8573d6000803e3d6000fd5b505050506040513d60208110156127ee57600080fd5b505110156125cf576125cf8686868686866129e4565b7f000000000000000000000000000000000000000000000000000000000000000081565b606061283382612f9f565b61283c57600080fd5b60405163e9dc637560e01b81526001600160a01b037f0000000000000000000000000000000000000000000000000000000000000000169063e9dc63759061288a9030908690600401615492565b60006040518083038186803b1580156128a257600080fd5b505afa1580156128b6573d6000803e3d6000fd5b505050506040513d6000823e601f3d908101601f191682016040526113e49190810190614f81565b6000836001600160a01b03166370a08231306040518263ffffffff1660e01b815260040180826001600160a01b0316815260200191505060206040518083038186803b15801561292d57600080fd5b505afa158015612941573d6000803e3d6000fd5b505050506040513d602081101561295757600080fd5b50519050828110156129a5576040805162461bcd60e51b815260206004820152601260248201527124b739bab33334b1b4b2b73a103a37b5b2b760711b604482015290519081900360640190fd5b801561276f5761276f848383613ad1565b6001600160a01b03918216600090815260056020908152604080832093909416825291909152205460ff1690565b6040805163d505accf60e01b8152336004820152306024820152604481018790526064810186905260ff8516608482015260a4810184905260c4810183905290516001600160a01b0388169163d505accf9160e480830192600092919082900301818387803b15801561165957600080fd5b6000612a6482840184615024565b9050612a947f00000000000000000000000000000000000000000000000000000000000000008260000151613c18565b508415612aaf578051516020820151612aaf91903388613c6c565b8315612acd57612acd81600001516020015182602001513387613c6c565b5050505050565b6000808235612ae33382613026565b612aff5760405162461bcd60e51b81526004016107f2906154e4565b6000612b1160608601604087016150e1565b6001600160801b03161180612b3e57506000612b3360808601606087016150e1565b6001600160801b0316115b612b4757600080fd5b600080612b5a6040870160208801614c46565b6001600160a01b031614612b7d57612b786040860160208701614c46565b612b7f565b305b85356000908152600c602090815260408083206001808201546001600160501b03168552600b8452828520835160608101855281546001600160a01b039081168252919092015490811694820194909452600160a01b90930462ffffff169183019190915292935090612c127f0000000000000000000000000000000000000000000000000000000000000000836130c8565b600484015460018501549192506001600160801b0380821692600160801b9283900482169290041615612e0857600185015460405163a34123a760e01b81526001600160a01b0385169163a34123a791612c8991600160501b8104600290810b92600160681b909204900b906000906004016154ab565b6040805180830381600087803b158015612ca257600080fd5b505af1158015612cb6573d6000803e3d6000fd5b505050506040513d601f19601f82011682018060405250810190612cda9190615273565b5050600185015460009081906001600160a01b0386169063514ea4bf90612d18903090600160501b8104600290810b91600160681b9004900b6131a7565b6040518263ffffffff1660e01b8152600401612d349190615489565b60a06040518083038186803b158015612d4c57600080fd5b505afa158015612d60573d6000803e3d6000fd5b505050506040513d601f19601f82011682018060405250810190612d84919061512b565b50509250925050612dc0876002015483038860010160109054906101000a90046001600160801b03166001600160801b0316600160801b6131fc565b84019350612df9876003015482038860010160109054906101000a90046001600160801b03166001600160801b0316600160801b6131fc565b60028801929092556003870155015b6000806001600160801b038416612e2560608e0160408f016150e1565b6001600160801b031611612e4857612e4360608d0160408e016150e1565b612e4a565b835b836001600160801b03168d6060016020810190612e6791906150e1565b6001600160801b031611612e8a57612e8560808e0160608f016150e1565b612e8c565b835b60018901546040516309e3d67b60e31b81529294509092506001600160a01b03871691634f1eb3d891612edf918c91600160501b8104600290810b92600160681b909204900b90889088906004016153b7565b6040805180830381600087803b158015612ef857600080fd5b505af1158015612f0c573d6000803e3d6000fd5b505050506040513d601f19601f82011682018060405250810190612f3091906150fd565b6004890180546001600160801b03196001600160801b03918216600160801b878a0384160217168689038216179091556040519281169d50169a508c35907f40d0efd1a53d60ecbf40971b9daf7dc90178c3aadc7aab1765632738fa8b8f0190610d26908b90869086906153f4565b60006113e4600283613dfc565b3390565b6000818152600c6020526040902080546001600160601b0316600160601b6001600160a01b038516908102919091179091558190612fed82611828565b6001600160a01b03167f8c5be1e5ebec7d5bd14f71427d1e84f3dd0314c0f7b2291e5b200ac8c7c3b92560405160405180910390a45050565b600061303182612f9f565b61306c5760405162461bcd60e51b815260040180806020018281038252602c8152602001806158d3602c913960400191505060405180910390fd5b600061307783611828565b9050806001600160a01b0316846001600160a01b031614806130b25750836001600160a01b03166130a7846107cb565b6001600160a01b0316145b8061103a575061103a81856129b6565b600e5490565b600081602001516001600160a01b031682600001516001600160a01b0316106130f057600080fd5b50805160208083015160409384015184516001600160a01b0394851681850152939091168385015262ffffff166060808401919091528351808403820181526080840185528051908301206001600160f81b031960a085015294901b6001600160601b03191660a183015260b58201939093527f1b5c366cb0b7109926c0b161c0a85469fa485e75389d33a4dd753c35b22f157b60d5808301919091528251808303909101815260f5909101909152805191012090565b604080516001600160601b0319606086901b16602080830191909152600285810b60e890811b60348501529085900b901b60378301528251601a818403018152603a90920190925280519101205b9392505050565b6000808060001985870986860292508281109083900303905080613232576000841161322757600080fd5b5082900490506131f5565b80841161323e57600080fd5b6000848688096000868103871696879004966002600389028118808a02820302808a02820302808a02820302808a02820302808a02820302808a02909103029181900381900460010186841190950394909402919094039290920491909117919091029150509392505050565b604080516000808252602082019092526001600160a01b0384169083906040518082805190602001908083835b602083106132f75780518252601f1990920191602091820191016132d8565b6001836020036101000a03801982511681845116808217855250505050505090500191505060006040518083038185875af1925050503d8060008114613359576040519150601f19603f3d011682016040523d82523d6000602084013e61335e565b606091505b50509050806108ef576040805162461bcd60e51b815260206004820152600360248201526222aa2360e91b604482015290519081900360640190fd5b60006113e482613e08565b6000806000806000604051806060016040528087600001516001600160a01b0316815260200187602001516001600160a01b03168152602001876040015162ffffff1681525090506134177f0000000000000000000000000000000000000000000000000000000000000000826130c8565b91506000826001600160a01b0316633850c7bd6040518163ffffffff1660e01b815260040160e06040518083038186803b15801561345457600080fd5b505afa158015613468573d6000803e3d6000fd5b505050506040513d601f19601f8201168201806040525081019061348c919061518c565b505050505050905060006134a38860800151613e0c565b905060006134b48960a00151613e0c565b90506134cb8383838c60c001518d60e0015161413e565b9750505050816001600160a01b0316633c8a7d8d876060015188608001518960a00151896040518060400160405280888152602001336001600160a01b031681525060405160200161351d91906155d3565b6040516020818303038152906040526040518663ffffffff1660e01b815260040161354c959493929190615375565b6040805180830381600087803b15801561356557600080fd5b505af1158015613579573d6000803e3d6000fd5b505050506040513d601f19601f8201168201806040525081019061359d9190615273565b610100880151919550935084108015906135bc57508561012001518310155b6135d85760405162461bcd60e51b81526004016107f290615556565b509193509193565b826001600160a01b03166135f382611828565b6001600160a01b0316146136385760405162461bcd60e51b81526004018080602001828103825260298152602001806159ac6029913960400191505060405180910390fd5b6001600160a01b03821661367d5760405162461bcd60e51b81526004018080602001828103825260248152602001806158896024913960400191505060405180910390fd5b6136888383836108ef565b613693600082612fb0565b6001600160a01b03831660009081526001602052604090206136b59082614202565b506001600160a01b03821660009081526001602052604090206136d8908261420e565b506136e56002828461421a565b5080826001600160a01b0316846001600160a01b03167fddf252ad1be2c89b69c2b068fc378daa952ba7f163c4a11628f55a4df523b3ef60405160405180910390a4505050565b60006113e18383614230565b4690565b600061374782611828565b9050613755816000846108ef565b613760600083612fb0565b600082815260086020526040902054600260001961010060018416150201909116041561379e57600082815260086020526040812061379e91614bb6565b6001600160a01b03811660009081526001602052604090206137c09083614202565b506137cc600283614294565b5060405182906000906001600160a01b038416907fddf252ad1be2c89b69c2b068fc378daa952ba7f163c4a11628f55a4df523b3ef908390a45050565b600080808061381886866142a0565b909450925050505b9250929050565b600061103a84848461431b565b6000908152600c6020526040902080546001600160601b0319811660016001600160601b039283169081019092161790915590565b3b151590565b6001600160a01b0382166138ca576040805162461bcd60e51b815260206004820181905260248201527f4552433732313a206d696e7420746f20746865207a65726f2061646472657373604482015290519081900360640190fd5b6138d381612f9f565b15613925576040805162461bcd60e51b815260206004820152601c60248201527f4552433732313a20746f6b656e20616c7265616479206d696e74656400000000604482015290519081900360640190fd5b613931600083836108ef565b6001600160a01b0382166000908152600160205260409020613953908261420e565b506139606002828461421a565b5060405181906001600160a01b038416906000907fddf252ad1be2c89b69c2b068fc378daa952ba7f163c4a11628f55a4df523b3ef908290a45050565b6001600160a01b0382166000908152600a60205260409020546001600160501b0316806113e45750600d805460016001600160501b03600160b01b8084048216838101909216026001600160b01b03909316929092179092556001600160a01b038085166000908152600a60209081526040808320805469ffffffffffffffffffff191686179055848352600b825291829020865181549085166001600160a01b031991821617825591870151950180549287015162ffffff16600160a01b0262ffffff60a01b19969094169290911691909117939093161790915592915050565b613a8a8484846135e0565b613a96848484846143e5565b61276f5760405162461bcd60e51b81526004018080602001828103825260328152602001806158306032913960400191505060405180910390fd5b604080516001600160a01b038481166024830152604480830185905283518084039091018152606490920183526020820180516001600160e01b031663a9059cbb60e01b1781529251825160009485949389169392918291908083835b60208310613b4d5780518252601f199092019160209182019101613b2e565b6001836020036101000a0380198251168184511680821785525050505050509050019150506000604051808303816000865af19150503d8060008114613baf576040519150601f19603f3d011682016040523d82523d6000602084013e613bb4565b606091505b5091509150818015613be2575080511580613be25750808060200190516020811015613bdf57600080fd5b50515b612acd576040805162461bcd60e51b81526020600482015260026024820152612a2360f11b604482015290519081900360640190fd5b6000613c2483836130c8565b9050336001600160a01b038216146113e4576040805162461bcd60e51b815260206004808301919091526024820152631413d3d360e21b604482015290519081900360640190fd5b7f00000000000000000000000000000000000000000000000000000000000000006001600160a01b0316846001600160a01b0316148015613cad5750804710155b15613dcf577f00000000000000000000000000000000000000000000000000000000000000006001600160a01b031663d0e30db0826040518263ffffffff1660e01b81526004016000604051808303818588803b158015613d0d57600080fd5b505af1158015613d21573d6000803e3d6000fd5b50505050507f00000000000000000000000000000000000000000000000000000000000000006001600160a01b031663a9059cbb83836040518363ffffffff1660e01b815260040180836001600160a01b0316815260200182815260200192505050602060405180830381600087803b158015613d9d57600080fd5b505af1158015613db1573d6000803e3d6000fd5b505050506040513d6020811015613dc757600080fd5b5061276f9050565b6001600160a01b038316301415613df057613deb848383613ad1565b61276f565b61276f8484848461454d565b60006113e1838361469d565b5490565b60008060008360020b12613e23578260020b613e2b565b8260020b6000035b9050620d89e8811115613e69576040805162461bcd60e51b81526020600482015260016024820152601560fa1b604482015290519081900360640190fd5b600060018216613e7d57600160801b613e8f565b6ffffcb933bd6fad37aa2d162d1a5940015b70ffffffffffffffffffffffffffffffffff1690506002821615613ec3576ffff97272373d413259a46990580e213a0260801c5b6004821615613ee2576ffff2e50f5f656932ef12357cf3c7fdcc0260801c5b6008821615613f01576fffe5caca7e10e4e61c3624eaa0941cd00260801c5b6010821615613f20576fffcb9843d60f6159c9db58835c9266440260801c5b6020821615613f3f576fff973b41fa98c081472e6896dfb254c00260801c5b6040821615613f5e576fff2ea16466c96a3843ec78b326b528610260801c5b6080821615613f7d576ffe5dee046a99a2a811c461f1969c30530260801c5b610100821615613f9d576ffcbe86c7900a88aedcffc83b479aa3a40260801c5b610200821615613fbd576ff987a7253ac413176f2b074cf7815e540260801c5b610400821615613fdd576ff3392b0822b70005940c7a398e4b70f30260801c5b610800821615613ffd576fe7159475a2c29b7443b29c7fa6e889d90260801c5b61100082161561401d576fd097f3bdfd2022b8845ad8f792aa58250260801c5b61200082161561403d576fa9f746462d870fdf8a65dc1f90e061e50260801c5b61400082161561405d576f70d869a156d2a1b890bb3df62baf32f70260801c5b61800082161561407d576f31be135f97d08fd981231505542fcfa60260801c5b6201000082161561409e576f09aa508b5b7a84e1c677de54f3e99bc90260801c5b620200008216156140be576e5d6af8dedb81196699c329225ee6040260801c5b620400008216156140dd576d2216e584f5fa1ea926041bedfe980260801c5b620800008216156140fa576b048a170391f7dc42444e8fa20260801c5b60008460020b131561411557806000198161411157fe5b0490505b64010000000081061561412957600161412c565b60005b60ff16602082901c0192505050919050565b6000836001600160a01b0316856001600160a01b0316111561415e579293925b846001600160a01b0316866001600160a01b031611614189576141828585856146b5565b90506141f9565b836001600160a01b0316866001600160a01b031610156141eb5760006141b08786866146b5565b905060006141bf878986614718565b9050806001600160801b0316826001600160801b0316106141e057806141e2565b815b925050506141f9565b6141f6858584614718565b90505b95945050505050565b60006113e18383614755565b60006113e1838361481b565b600061103a84846001600160a01b038516614865565b815460009082106142725760405162461bcd60e51b815260040180806020018281038252602281526020018061580e6022913960400191505060405180910390fd5b82600001828154811061428157fe5b9060005260206000200154905092915050565b60006113e183836148fc565b8154600090819083106142e45760405162461bcd60e51b815260040180806020018281038252602281526020018061598a6022913960400191505060405180910390fd5b60008460000184815481106142f557fe5b906000526020600020906002020190508060000154816001015492509250509250929050565b600082815260018401602052604081205482816143b65760405162461bcd60e51b81526004018080602001828103825283818151815260200191508051906020019080838360005b8381101561437b578181015183820152602001614363565b50505050905090810190601f1680156143a85780820380516001836020036101000a031916815260200191505b509250505060405180910390fd5b508460000160018203815481106143c957fe5b9060005260206000209060020201600101549150509392505050565b60006143f9846001600160a01b0316613869565b6144055750600161103a565b6000614513630a85bd0160e11b61441a612fac565b88878760405160240180856001600160a01b03168152602001846001600160a01b0316815260200183815260200180602001828103825283818151815260200191508051906020019080838360005b83811015614481578181015183820152602001614469565b50505050905090810190601f1680156144ae5780820380516001836020036101000a031916815260200191505b5095505050505050604051602081830303815290604052906001600160e01b0319166020820180516001600160e01b038381831617835250505050604051806060016040528060328152602001615830603291396001600160a01b03881691906149d0565b9050600081806020019051602081101561452c57600080fd5b50516001600160e01b031916630a85bd0160e11b1492505050949350505050565b604080516001600160a01b0385811660248301528481166044830152606480830185905283518084039091018152608490920183526020820180516001600160e01b03166323b872dd60e01b178152925182516000948594938a169392918291908083835b602083106145d15780518252601f1990920191602091820191016145b2565b6001836020036101000a0380198251168184511680821785525050505050509050019150506000604051808303816000865af19150503d8060008114614633576040519150601f19603f3d011682016040523d82523d6000602084013e614638565b606091505b5091509150818015614666575080511580614666575080806020019051602081101561466357600080fd5b50515b6125cf576040805162461bcd60e51b81526020600482015260036024820152622a232360e91b604482015290519081900360640190fd5b60009081526001919091016020526040902054151590565b6000826001600160a01b0316846001600160a01b031611156146d5579192915b60006146f8856001600160a01b0316856001600160a01b0316600160601b6131fc565b90506141f961471384838888036001600160a01b03166131fc565b6149df565b6000826001600160a01b0316846001600160a01b03161115614738579192915b61103a61471383600160601b8787036001600160a01b03166131fc565b60008181526001830160205260408120548015614811578354600019808301919081019060009087908390811061478857fe5b90600052602060002001549050808760000184815481106147a557fe5b6000918252602080832090910192909255828152600189810190925260409020908401905586548790806147d557fe5b600190038181906000526020600020016000905590558660010160008781526020019081526020016000206000905560019450505050506113e4565b60009150506113e4565b6000614827838361469d565b61485d575081546001818101845560008481526020808220909301849055845484825282860190935260409020919091556113e4565b5060006113e4565b6000828152600184016020526040812054806148ca5750506040805180820182528381526020808201848152865460018181018955600089815284812095516002909302909501918255915190820155865486845281880190925292909120556131f5565b828560000160018303815481106148dd57fe5b90600052602060002090600202016001018190555060009150506131f5565b60008181526001830160205260408120548015614811578354600019808301919081019060009087908390811061492f57fe5b906000526020600020906002020190508087600001848154811061494f57fe5b60009182526020808320845460029093020191825560019384015491840191909155835482528983019052604090209084019055865487908061498e57fe5b60008281526020808220600260001990940193840201828155600190810183905592909355888152898201909252604082209190915594506113e49350505050565b606061103a84846000856149f5565b806001600160801b038116811461073057600080fd5b606082471015614a365760405162461bcd60e51b81526004018080602001828103825260268152602001806158ad6026913960400191505060405180910390fd5b614a3f85613869565b614a90576040805162461bcd60e51b815260206004820152601d60248201527f416464726573733a2063616c6c20746f206e6f6e2d636f6e7472616374000000604482015290519081900360640190fd5b600080866001600160a01b031685876040518082805190602001908083835b60208310614ace5780518252601f199092019160209182019101614aaf565b6001836020036101000a03801982511681845116808217855250505050505090500191505060006040518083038185875af1925050503d8060008114614b30576040519150601f19603f3d011682016040523d82523d6000602084013e614b35565b606091505b5091509150614b45828286614b50565b979650505050505050565b60608315614b5f5750816131f5565b825115614b6f5782518084602001fd5b60405162461bcd60e51b815260206004820181815284516024840152845185939192839260440191908501908083836000831561437b578181015183820152602001614363565b50805460018160011615610100020316600290046000825580601f10614bdc5750614bfa565b601f016020900490600052602060002090810190614bfa9190614bfd565b50565b5b80821115614c125760008155600101614bfe565b5090565b8035610730816157b7565b805161ffff8116811461073057600080fd5b803562ffffff8116811461073057600080fd5b600060208284031215614c57578081fd5b81356131f5816157b7565b60008060408385031215614c74578081fd5b8235614c7f816157b7565b91506020830135614c8f816157b7565b809150509250929050565b60008060008060808587031215614caf578182fd5b8435614cba816157b7565b93506020850135614cca816157b7565b9250614cd860408601614c33565b91506060850135614ce8816157b7565b939692955090935050565b600080600060608486031215614d07578081fd5b8335614d12816157b7565b92506020840135614d22816157b7565b929592945050506040919091013590565b60008060008060808587031215614d48578182fd5b8435614d53816157b7565b93506020850135614d63816157b7565b925060408501359150606085013567ffffffffffffffff811115614d85578182fd5b8501601f81018713614d95578182fd5b8035614da8614da382615769565b615745565b818152886020838501011115614dbc578384fd5b81602084016020830137908101602001929092525092959194509250565b60008060408385031215614dec578182fd5b8235614df7816157b7565b91506020830135614c8f816157cc565b60008060408385031215614e19578182fd5b8235614e24816157b7565b946020939093013593505050565b600080600060608486031215614e46578081fd5b8335614e51816157b7565b9250602084013591506040840135614e68816157b7565b809150509250925092565b60008060008060008060c08789031215614e8b578384fd5b8635614e96816157b7565b955060208701359450604087013593506060870135614eb4816157fe565b9598949750929560808101359460a0909101359350915050565b60008060208385031215614ee0578182fd5b823567ffffffffffffffff80821115614ef7578384fd5b818501915085601f830112614f0a578384fd5b813581811115614f18578485fd5b8660208083028501011115614f2b578485fd5b60209290920196919550909350505050565b600060208284031215614f4e578081fd5b81356001600160e01b0319811681146131f5578182fd5b600060208284031215614f76578081fd5b81356131f5816157da565b600060208284031215614f92578081fd5b815167ffffffffffffffff811115614fa8578182fd5b8201601f81018413614fb8578182fd5b8051614fc6614da382615769565b818152856020838501011115614fda578384fd5b6141f982602083016020860161578b565b600060808284031215614ffc578081fd5b50919050565b600060a08284031215614ffc578081fd5b600060c08284031215614ffc578081fd5b60008183036080811215615036578182fd5b6040516040810167ffffffffffffffff828210818311171561505457fe5b816040526060841215615065578485fd5b60a083019350818410818511171561507957fe5b50826040528435925061508b836157b7565b91825260208401359161509d836157b7565b8260608301526150af60408601614c33565b608083015281526150c260608501614c16565b6020820152949350505050565b60006101608284031215614ffc578081fd5b6000602082840312156150f2578081fd5b81356131f5816157e9565b6000806040838503121561510f578182fd5b825161511a816157e9565b6020840151909250614c8f816157e9565b600080600080600060a08688031215615142578283fd5b855161514d816157e9565b809550506020860151935060408601519250606086015161516d816157e9565b608087015190925061517e816157e9565b809150509295509295909350565b600080600080600080600060e0888a0312156151a6578485fd5b87516151b1816157b7565b60208901519097506151c2816157da565b95506151d060408901614c21565b94506151de60608901614c21565b93506151ec60808901614c21565b925060a08801516151fc816157fe565b60c089015190925061520d816157cc565b8091505092959891949750929550565b60006020828403121561522e578081fd5b6113e182614c33565b600060208284031215615248578081fd5b5035919050565b60008060408385031215615261578182fd5b823591506020830135614c8f816157b7565b60008060408385031215615285578182fd5b505080516020909101519092909150565b600080600080606085870312156152ab578182fd5b8435935060208501359250604085013567ffffffffffffffff808211156152d0578384fd5b818701915087601f8301126152e3578384fd5b8135818111156152f1578485fd5b886020828501011115615302578485fd5b95989497505060200194505050565b6000815180845261532981602086016020860161578b565b601f01601f19169290920160200192915050565b60020b9052565b6001600160801b03169052565b6000828483379101908152919050565b6001600160a01b0391909116815260200190565b600060018060a01b03871682528560020b60208301528460020b60408301526001600160801b038416606083015260a06080830152614b4560a0830184615311565b6001600160a01b03959095168552600293840b60208601529190920b60408401526001600160801b03918216606084015216608082015260a00190565b6001600160a01b039390931683526001600160801b03918216602084015216604082015260600190565b6000602080830181845280855180835260408601915060408482028701019250838701855b8281101561547157603f1988860301845261545f858351615311565b94509285019290850190600101615443565b5092979650505050505050565b901515815260200190565b90815260200190565b6001600160a01b03929092168252602082015260400190565b600293840b81529190920b60208201526001600160801b03909116604082015260600190565b6000602082526113e16020830184615311565b6020808252600c908201526b139bdd08185c1c1c9bdd995960a21b604082015260600190565b6020808252602c908201527f4552433732313a20617070726f76656420717565727920666f72206e6f6e657860408201526b34b9ba32b73a103a37b5b2b760a11b606082015260800190565b602080825260149082015273507269636520736c69707061676520636865636b60601b604082015260600190565b60208082526010908201526f125b9d985b1a59081d1bdad95b88125160821b604082015260600190565b6020808252600b908201526a139bdd0818db19585c995960aa1b604082015260600190565b815180516001600160a01b03908116835260208083015182168185015260409283015162ffffff1692840192909252920151909116606082015260800190565b6001600160801b039390931683526020830191909152604082015260600190565b9384526001600160801b039290921660208401526040830152606082015260800190565b918252602082015260400190565b6001600160601b038d1681526001600160a01b038c811660208301528b811660408301528a16606082015262ffffff89166080820152600288900b60a082015261018081016156b860c083018961533d565b6156c560e0830188615344565b85610100830152846101208301526156e1610140830185615344565b6156ef610160830184615344565b9d9c50505050505050505050505050565b6000808335601e19843603018112615716578283fd5b83018035915067ffffffffffffffff821115615730578283fd5b60200191503681900382131561382057600080fd5b60405181810167ffffffffffffffff8111828210171561576157fe5b604052919050565b600067ffffffffffffffff82111561577d57fe5b50601f01601f191660200190565b60005b838110156157a657818101518382015260200161578e565b8381111561276f5750506000910152565b6001600160a01b0381168114614bfa57600080fd5b8015158114614bfa57600080fd5b8060020b8114614bfa57600080fd5b6001600160801b0381168114614bfa57600080fd5b60ff81168114614bfa57600080fdfe456e756d657261626c655365743a20696e646578206f7574206f6620626f756e64734552433732313a207472616e7366657220746f206e6f6e20455243373231526563656976657220696d706c656d656e7465724552433732315065726d69743a20617070726f76616c20746f2063757272656e74206f776e65724552433732313a207472616e7366657220746f20746865207a65726f2061646472657373416464726573733a20696e73756666696369656e742062616c616e636520666f722063616c6c4552433732313a206f70657261746f7220717565727920666f72206e6f6e6578697374656e7420746f6b656e4552433732313a20617070726f76652063616c6c6572206973206e6f74206f776e6572206e6f7220617070726f76656420666f7220616c6c4552433732313a2062616c616e636520717565727920666f7220746865207a65726f20616464726573734552433732313a206f776e657220717565727920666f72206e6f6e6578697374656e7420746f6b656e456e756d657261626c654d61703a20696e646578206f7574206f6620626f756e64734552433732313a207472616e73666572206f6620746f6b656e2074686174206973206e6f74206f776e4552433732313a20617070726f76616c20746f2063757272656e74206f776e65724552433732313a207472616e736665722063616c6c6572206973206e6f74206f776e6572206e6f7220617070726f766564a2646970667358221220a750c8369459ae39db20048ee7bf2b8234a83908102ab4732da451d1d9b6431664736f6c63430007060033",
  "linkReferences": {},
  "deployedLinkReferences": {}
}