{
  "_format": "hh-sol-artifact-1",
  "contractName": "NonfungiblePositionManager",
  "sourceName": "contracts/NonfungiblePositionManager.sol",
  "abi": [
    {
      "inputs": [
        {
          "internalType": "address",
          "name": "_factory",
          "type": "address"
        },
        {
          "internalType": "address",
          "name": "_WETH9",
          "type": "address"
        },
        {
          "internalType": "address",
          "name": "_tokenDescriptor_",
          "type": "address"
        }
      ],
      "stateMutability": "nonpayable",
      "type": "constructor"
    },
    {
      "anonymous": false,
      "inputs": [
        {
          "indexed": true,
          "internalType": "address",
          "name": "owner",
          "type": "address"
        },
        {
          "indexed": true,
          "internalType": "address",
          "name": "approved",
          "type": "address"
        },
        {
          "indexed": true,
          "internalType": "uint256",
          "name": "tokenId",
          "type": "uint256"
        }
      ],
      "name": "Approval",
      "type": "event"
    },
    {
      "anonymous": false,
      "inputs": [
        {
          "indexed": true,
          "internalType": "address",
          "name": "owner",
          "type": "address"
        },
        {
          "indexed": true,
          "internalType": "address",
          "name": "operator",
          "type": "address"
        },
        {
          "indexed": false,
          "internalType": "bool",
          "name": "approved",
          "type": "bool"
        }
      ],
      "name": "ApprovalForAll",
      "type": "event"
    },
    {
      "anonymous": false,
      "inputs": [
        {
          "indexed": true,
          "internalType": "uint256",
          "name": "tokenId",
          "type": "uint256"
        },
        {
          "indexed": false,
          "internalType": "address",
          "name": "recipient",
          "type": "address"
        },
        {
          "indexed": false,
          "internalType": "uint256",
          "name": "amount0",
          "type": "uint256"
        },
        {
          "indexed": false,
          "internalType": "uint256",
          "name": "amount1",
          "type": "uint256"
        }
      ],
      "name": "Collect",
      "type": "event"
    },
    {
      "anonymous": false,
      "inputs": [
        {
          "indexed": true,
          "internalType": "uint256",
          "name": "tokenId",
          "type": "uint256"
        },
        {
          "indexed": false,
          "internalType": "uint128",
          "name": "liquidity",
          "type": "uint128"
        },
        {
          "indexed": false,
          "internalType": "uint256",
          "name": "amount0",
          "type": "uint256"
        },
        {
          "indexed": false,
          "internalType": "uint256",
          "name": "amount1",
          "type": "uint256"
        }
      ],
      "name": "DecreaseLiquidity",
      "type": "event"
    },
    {
      "anonymous": false,
      "inputs": [
        {
          "indexed": true,
          "internalType": "uint256",
          "name": "tokenId",
          "type": "uint256"
        },
        {
          "indexed": false,
          "internalType": "uint128",
          "name": "liquidity",
          "type": "uint128"
        },
        {
          "indexed": false,
          "internalType": "uint256",
          "name": "amount0",
          "type": "uint256"
        },
        {
          "indexed": false,
          "internalType": "uint256",
          "name": "amount1",
          "type": "uint256"
        }
      ],
      "name": "IncreaseLiquidity",
      "type": "event"
    },
    {
      "anonymous": false,
      "inputs": [
        {
          "indexed": true,
          "internalType": "address",
          "name": "from",
          "type": "address"
        },
        {
          "indexed": true,
          "internalType": "address",
          "name": "to",
          "type": "address"
        },
        {
          "indexed": true,
          "internalType": "uint256",
          "name": "tokenId",
          "type": "uint256"
        }
      ],
      "name": "Transfer",
      "type": "event"
    },
    {
      "inputs": [],
      "name": "DOMAIN_SEPARATOR",
      "outputs": [
        {
          "internalType": "bytes32",
          "name": "",
          "type": "bytes32"
        }
      ],
      "stateMutability": "view",
      "type": "function"
    },
    {
      "inputs": [],
      "name": "PERMIT_TYPEHASH",
      "outputs": [
        {
          "internalType": "bytes32",
          "name": "",
          "type": "bytes32"
        }
      ],
      "stateMutability": "view",
      "type": "function"
    },
    {
      "inputs": [],
      "name": "WETH9",
      "outputs": [
        {
          "internalType": "address",
          "name": "",
          "type": "address"
        }
      ],
      "stateMutability": "view",
      "type": "function"
    },
    {
      "inputs": [
        {
          "internalType": "address",
          "name": "to",
          "type": "address"
        },
        {
          "internalType": "uint256",
          "name": "tokenId",
          "type": "uint256"
        }
      ],
      "name": "approve",
      "outputs": [],
      "stateMutability": "nonpayable",
      "type": "function"
    },
    {
      "inputs": [
        {
          "internalType": "address",
          "name": "owner",
          "type": "address"
        }
      ],
      "name": "balanceOf",
      "outputs": [
        {
          "internalType": "uint256",
          "name": "",
          "type": "uint256"
        }
      ],
      "stateMutability": "view",
      "type": "function"
    },
    {
      "inputs": [],
      "name": "baseURI",
      "outputs": [
        {
          "internalType": "string",
          "name": "",
          "type": "string"
        }
      ],
      "stateMutability": "pure",
      "type": "function"
    },
    {
      "inputs": [
        {
          "internalType": "uint256",
          "name": "tokenId",
          "type": "uint256"
        }
      ],
      "name": "burn",
      "outputs": [],
      "stateMutability": "payable",
      "type": "function"
    },
    {
      "inputs": [
        {
          "components": [
            {
              "internalType": "uint256",
              "name": "tokenId",
              "type": "uint256"
            },
            {
              "internalType": "address",
              "name": "recipient",
              "type": "address"
            },
            {
              "internalType": "uint128",
              "name": "amount0Max",
              "type": "uint128"
            },
            {
              "internalType": "uint128",
              "name": "amount1Max",
              "type": "uint128"
            }
          ],
          "internalType": "struct INonfungiblePositionManager.CollectParams",
          "name": "params",
          "type": "tuple"
        }
      ],
      "name": "collect",
      "outputs": [
        {
          "internalType": "uint256",
          "name": "amount0",
          "type": "uint256"
        },
        {
          "internalType": "uint256",
          "name": "amount1",
          "type": "uint256"
        }
      ],
      "stateMutability": "payable",
      "type": "function"
    },
    {
      "inputs": [
        {
          "internalType": "address",
          "name": "token0",
          "type": "address"
        },
        {
          "internalType": "address",
          "name": "token1",
          "type": "address"
        },
        {
          "internalType": "uint24",
          "name": "fee",
          "type": "uint24"
        },
        {
          "internalType": "uint160",
          "name": "sqrtPriceX96",
          "type": "uint160"
        }
      ],
      "name": "createAndInitializePoolIfNecessary",
      "outputs": [
        {
          "internalType": "address",
          "name": "pool",
          "type": "address"
        }
      ],
      "stateMutability": "payable",
      "type": "function"
    },
    {
      "inputs": [
        {
          "components": [
            {
              "internalType": "uint256",
              "name": "tokenId",
              "type": "uint256"
            },
            {
              "internalType": "uint128",
              "name": "liquidity",
              "type": "uint128"
            },
            {
              "internalType": "uint256",
              "name": "amount0Min",
              "type": "uint256"
            },
            {
              "internalType": "uint256",
              "name": "amount1Min",
              "type": "uint256"
            },
            {
              "internalType": "uint256",
              "name": "deadline",
              "type": "uint256"
            }
          ],
          "internalType": "struct INonfungiblePositionManager.DecreaseLiquidityParams",
          "name": "params",
          "type": "tuple"
        }
      ],
      "name": "decreaseLiquidity",
      "outputs": [
        {
          "internalType": "uint256",
          "name": "amount0",
          "type": "uint256"
        },
        {
          "internalType": "uint256",
          "name": "amount1",
          "type": "uint256"
        }
      ],
      "stateMutability": "payable",
      "type": "function"
    },
    {
      "inputs": [],
      "name": "factory",
      "outputs": [
        {
          "internalType": "address",
          "name": "",
          "type": "address"
        }
      ],
      "stateMutability": "view",
      "type": "function"
    },
    {
      "inputs": [
        {
          "internalType": "uint256",
          "name": "tokenId",
          "type": "uint256"
        }
      ],
      "name": "getApproved",
      "outputs": [
        {
          "internalType": "address",
          "name": "",
          "type": "address"
        }
      ],
      "stateMutability": "view",
      "type": "function"
    },
    {
      "inputs": [
        {
          "components": [
            {
              "internalType": "uint256",
              "name": "tokenId",
              "type": "uint256"
            },
            {
              "internalType": "uint256",
              "name": "amount0Desired",
              "type": "uint256"
            },
            {
              "internalType": "uint256",
              "name": "amount1Desired",
              "type": "uint256"
            },
            {
              "internalType": "uint256",
              "name": "amount0Min",
              "type": "uint256"
            },
            {
              "internalType": "uint256",
              "name": "amount1Min",
              "type": "uint256"
            },
            {
              "internalType": "uint256",
              "name": "deadline",
              "type": "uint256"
            }
          ],
          "internalType": "struct INonfungiblePositionManager.IncreaseLiquidityParams",
          "name": "params",
          "type": "tuple"
        }
      ],
      "name": "increaseLiquidity",
      "outputs": [
        {
          "internalType": "uint128",
          "name": "liquidity",
          "type": "uint128"
        },
        {
          "internalType": "uint256",
          "name": "amount0",
          "type": "uint256"
        },
        {
          "internalType": "uint256",
          "name": "amount1",
          "type": "uint256"
        }
      ],
      "stateMutability": "payable",
      "type": "function"
    },
    {
      "inputs": [
        {
          "internalType": "address",
          "name": "owner",
          "type": "address"
        },
        {
          "internalType": "address",
          "name": "operator",
          "type": "address"
        }
      ],
      "name": "isApprovedForAll",
      "outputs": [
        {
          "internalType": "bool",
          "name": "",
          "type": "bool"
        }
      ],
      "stateMutability": "view",
      "type": "function"
    },
    {
      "inputs": [
        {
          "components": [
            {
              "internalType": "address",
              "name": "token0",
              "type": "address"
            },
            {
              "internalType": "address",
              "name": "token1",
              "type": "address"
            },
            {
              "internalType": "uint24",
              "name": "fee",
              "type": "uint24"
            },
            {
              "internalType": "int24",
              "name": "tickLower",
              "type": "int24"
            },
            {
              "internalType": "int24",
              "name": "tickUpper",
              "type": "int24"
            },
            {
              "internalType": "uint256",
              "name": "amount0Desired",
              "type": "uint256"
            },
            {
              "internalType": "uint256",
              "name": "amount1Desired",
              "type": "uint256"
            },
            {
              "internalType": "uint256",
              "name": "amount0Min",
              "type": "uint256"
            },
            {
              "internalType": "uint256",
              "name": "amount1Min",
              "type": "uint256"
            },
            {
              "internalType": "address",
              "name": "recipient",
              "type": "address"
            },
            {
              "internalType": "uint256",
              "name": "deadline",
              "type": "uint256"
            }
          ],
          "internalType": "struct INonfungiblePositionManager.MintParams",
          "name": "params",
          "type": "tuple"
        }
      ],
      "name": "mint",
      "outputs": [
        {
          "internalType": "uint256",
          "name": "tokenId",
          "type": "uint256"
        },
        {
          "internalType": "uint128",
          "name": "liquidity",
          "type": "uint128"
        },
        {
          "internalType": "uint256",
          "name": "amount0",
          "type": "uint256"
        },
        {
          "internalType": "uint256",
          "name": "amount1",
          "type": "uint256"
        }
      ],
      "stateMutability": "payable",
      "type": "function"
    },
    {
      "inputs": [
        {
          "internalType": "bytes[]",
          "name": "data",
          "type": "bytes[]"
        }
      ],
      "name": "multicall",
      "outputs": [
        {
          "internalType": "bytes[]",
          "name": "results",
          "type": "bytes[]"
        }
      ],
      "stateMutability": "payable",
      "type": "function"
    },
    {
      "inputs": [],
      "name": "name",
      "outputs": [
        {
          "internalType": "string",
          "name": "",
          "type": "string"
        }
      ],
      "stateMutability": "view",
      "type": "function"
    },
    {
      "inputs": [
        {
          "internalType": "uint256",
          "name": "tokenId",
          "type": "uint256"
        }
      ],
      "name": "ownerOf",
      "outputs": [
        {
          "internalType": "address",
          "name": "",
          "type": "address"
        }
      ],
      "stateMutability": "view",
      "type": "function"
    },
    {
      "inputs": [
        {
          "internalType": "address",
          "name": "spender",
          "type": "address"
        },
        {
          "internalType": "uint256",
          "name": "tokenId",
          "type": "uint256"
        },
        {
          "internalType": "uint256",
          "name": "deadline",
          "type": "uint256"
        },
        {
          "internalType": "uint8",
          "name": "v",
          "type": "uint8"
        },
        {
          "internalType": "bytes32",
          "name": "r",
          "type": "bytes32"
        },
        {
          "internalType": "bytes32",
          "name": "s",
          "type": "bytes32"
        }
      ],
      "name": "permit",
      "outputs": [],
      "stateMutability": "payable",
      "type": "function"
    },
    {
      "inputs": [],
      "name": "poolDeployer",
      "outputs": [
        {
          "internalType": "address",
          "name": "",
          "type": "address"
        }
      ],
      "stateMutability": "view",
      "type": "function"
    },
    {
      "inputs": [
        {
          "internalType": "uint256",
          "name": "tokenId",
          "type": "uint256"
        }
      ],
      "name": "positions",
      "outputs": [
        {
          "internalType": "uint96",
          "name": "nonce",
          "type": "uint96"
        },
        {
          "internalType": "address",
          "name": "operator",
          "type": "address"
        },
        {
          "internalType": "address",
          "name": "token0",
          "type": "address"
        },
        {
          "internalType": "address",
          "name": "token1",
          "type": "address"
        },
        {
          "internalType": "uint24",
          "name": "fee",
          "type": "uint24"
        },
        {
          "internalType": "int24",
          "name": "tickLower",
          "type": "int24"
        },
        {
          "internalType": "int24",
          "name": "tickUpper",
          "type": "int24"
        },
        {
          "internalType": "uint128",
          "name": "liquidity",
          "type": "uint128"
        },
        {
          "internalType": "uint256",
          "name": "feeGrowthInside0LastX128",
          "type": "uint256"
        },
        {
          "internalType": "uint256",
          "name": "feeGrowthInside1LastX128",
          "type": "uint256"
        },
        {
          "internalType": "uint128",
          "name": "tokensOwed0",
          "type": "uint128"
        },
        {
          "internalType": "uint128",
          "name": "tokensOwed1",
          "type": "uint128"
        }
      ],
      "stateMutability": "view",
      "type": "function"
    },
    {
      "inputs": [],
      "name": "refundETH",
      "outputs": [],
      "stateMutability": "payable",
      "type": "function"
    },
    {
      "inputs": [
        {
          "internalType": "address",
          "name": "from",
          "type": "address"
        },
        {
          "internalType": "address",
          "name": "to",
          "type": "address"
        },
        {
          "internalType": "uint256",
          "name": "tokenId",
          "type": "uint256"
        }
      ],
      "name": "safeTransferFrom",
      "outputs": [],
      "stateMutability": "nonpayable",
      "type": "function"
    },
    {
      "inputs": [
        {
          "internalType": "address",
          "name": "from",
          "type": "address"
        },
        {
          "internalType": "address",
          "name": "to",
          "type": "address"
        },
        {
          "internalType": "uint256",
          "name": "tokenId",
          "type": "uint256"
        },
        {
          "internalType": "bytes",
          "name": "_data",
          "type": "bytes"
        }
      ],
      "name": "safeTransferFrom",
      "outputs": [],
      "stateMutability": "nonpayable",
      "type": "function"
    },
    {
      "inputs": [
        {
          "internalType": "address",
          "name": "token",
          "type": "address"
        },
        {
          "internalType": "uint256",
          "name": "value",
          "type": "uint256"
        },
        {
          "internalType": "uint256",
          "name": "deadline",
          "type": "uint256"
        },
        {
          "internalType": "uint8",
          "name": "v",
          "type": "uint8"
        },
        {
          "internalType": "bytes32",
          "name": "r",
          "type": "bytes32"
        },
        {
          "internalType": "bytes32",
          "name": "s",
          "type": "bytes32"
        }
      ],
      "name": "selfPermit",
      "outputs": [],
      "stateMutability": "payable",
      "type": "function"
    },
    {
      "inputs": [
        {
          "internalType": "address",
          "name": "token",
          "type": "address"
        },
        {
          "internalType": "uint256",
          "name": "nonce",
          "type": "uint256"
        },
        {
          "internalType": "uint256",
          "name": "expiry",
          "type": "uint256"
        },
        {
          "internalType": "uint8",
          "name": "v",
          "type": "uint8"
        },
        {
          "internalType": "bytes32",
          "name": "r",
          "type": "bytes32"
        },
        {
          "internalType": "bytes32",
          "name": "s",
          "type": "bytes32"
        }
      ],
      "name": "selfPermitAllowed",
      "outputs": [],
      "stateMutability": "payable",
      "type": "function"
    },
    {
      "inputs": [
        {
          "internalType": "address",
          "name": "token",
          "type": "address"
        },
        {
          "internalType": "uint256",
          "name": "nonce",
          "type": "uint256"
        },
        {
          "internalType": "uint256",
          "name": "expiry",
          "type": "uint256"
        },
        {
          "internalType": "uint8",
          "name": "v",
          "type": "uint8"
        },
        {
          "internalType": "bytes32",
          "name": "r",
          "type": "bytes32"
        },
        {
          "internalType": "bytes32",
          "name": "s",
          "type": "bytes32"
        }
      ],
      "name": "selfPermitAllowedIfNecessary",
      "outputs": [],
      "stateMutability": "payable",
      "type": "function"
    },
    {
      "inputs": [
        {
          "internalType": "address",
          "name": "token",
          "type": "address"
        },
        {
          "internalType": "uint256",
          "name": "value",
          "type": "uint256"
        },
        {
          "internalType": "uint256",
          "name": "deadline",
          "type": "uint256"
        },
        {
          "internalType": "uint8",
          "name": "v",
          "type": "uint8"
        },
        {
          "internalType": "bytes32",
          "name": "r",
          "type": "bytes32"
        },
        {
          "internalType": "bytes32",
          "name": "s",
          "type": "bytes32"
        }
      ],
      "name": "selfPermitIfNecessary",
      "outputs": [],
      "stateMutability": "payable",
      "type": "function"
    },
    {
      "inputs": [
        {
          "internalType": "address",
          "name": "operator",
          "type": "address"
        },
        {
          "internalType": "bool",
          "name": "approved",
          "type": "bool"
        }
      ],
      "name": "setApprovalForAll",
      "outputs": [],
      "stateMutability": "nonpayable",
      "type": "function"
    },
    {
      "inputs": [
        {
          "internalType": "uint256",
          "name": "amount0Owed",
          "type": "uint256"
        },
        {
          "internalType": "uint256",
          "name": "amount1Owed",
          "type": "uint256"
        },
        {
          "internalType": "bytes",
          "name": "data",
          "type": "bytes"
        }
      ],
      "name": "skyxV3MintCallback",
      "outputs": [],
      "stateMutability": "nonpayable",
      "type": "function"
    },
    {
      "inputs": [
        {
          "internalType": "bytes4",
          "name": "interfaceId",
          "type": "bytes4"
        }
      ],
      "name": "supportsInterface",
      "outputs": [
        {
          "internalType": "bool",
          "name": "",
          "type": "bool"
        }
      ],
      "stateMutability": "view",
      "type": "function"
    },
    {
      "inputs": [
        {
          "internalType": "address",
          "name": "token",
          "type": "address"
        },
        {
          "internalType": "uint256",
          "name": "amountMinimum",
          "type": "uint256"
        },
        {
          "internalType": "address",
          "name": "recipient",
          "type": "address"
        }
      ],
      "name": "sweepToken",
      "outputs": [],
      "stateMutability": "payable",
      "type": "function"
    },
    {
      "inputs": [],
      "name": "symbol",
      "outputs": [
        {
          "internalType": "string",
          "name": "",
          "type": "string"
        }
      ],
      "stateMutability": "view",
      "type": "function"
    },
    {
      "inputs": [
        {
          "internalType": "uint256",
          "name": "index",
          "type": "uint256"
        }
      ],
      "name": "tokenByIndex",
      "outputs": [
        {
          "internalType": "uint256",
          "name": "",
          "type": "uint256"
        }
      ],
      "stateMutability": "view",
      "type": "function"
    },
    {
      "inputs": [
        {
          "internalType": "address",
          "name": "owner",
          "type": "address"
        },
        {
          "internalType": "uint256",
          "name": "index",
          "type": "uint256"
        }
      ],
      "name": "tokenOfOwnerByIndex",
      "outputs": [
        {
          "internalType": "uint256",
          "name": "",
          "type": "uint256"
        }
      ],
      "stateMutability": "view",
      "type": "function"
    },
    {
      "inputs": [
        {
          "internalType": "uint256",
          "name": "tokenId",
          "type": "uint256"
        }
      ],
      "name": "tokenURI",
      "outputs": [
        {
          "internalType": "string",
          "name": "",
          "type": "string"
        }
      ],
      "stateMutability": "view",
      "type": "function"
    },
    {
      "inputs": [],
      "name": "totalSupply",
      "outputs": [
        {
          "internalType": "uint256",
          "name": "",
          "type": "uint256"
        }
      ],
      "stateMutability": "view",
      "type": "function"
    },
    {
      "inputs": [
        {
          "internalType": "address",
          "name": "from",
          "type": "address"
        },
        {
          "internalType": "address",
          "name": "to",
          "type": "address"
        },
        {
          "internalType": "uint256",
          "name": "tokenId",
          "type": "uint256"
        }
      ],
      "name": "transferFrom",
      "outputs": [],
      "stateMutability": "nonpayable",
      "type": "function"
    },
    {
      "inputs": [
        {
          "internalType": "uint256",
          "name": "amountMinimum",
          "type": "uint256"
        },
        {
          "internalType": "address",
          "name": "recipient",
          "type": "address"
        }
      ],
      "name": "unwrapWETH9",
      "outputs": [],
      "stateMutability": "payable",
      "type": "function"
    },
    {
      "stateMutability": "payable",
      "type": "receive"
    }
  ],
  "bytecode": "0x610140604052600d80546001600160b01b0319166001176001600160b01b0316600160b01b1790553480156200003457600080fd5b5060405162005e6138038062005e6183398101604081905262000057916200035c565b82826040518060400160405280601881526020017f536b795820563320506f736974696f6e73204e46542d563100000000000000008152506040518060400160405280600b81526020016a534b59582d56332d504f5360a81b815250604051806040016040528060018152602001603160f81b8152508282620000e76301ffc9a760e01b6200020e60201b60201c565b8151620000fc90600690602085019062000293565b5080516200011290600790602084019062000293565b50620001256380ac58cd60e01b6200020e565b62000137635b5e139f60e01b6200020e565b6200014963780e9d6360e01b6200020e565b5050825160209384012060805280519083012060a052506001600160601b0319606084811b821660c05283901b1660e0526040805163188c824d60e11b815290516001600160a01b03851692633119049a9260048082019391829003018186803b158015620001b757600080fd5b505afa158015620001cc573d6000803e3d6000fd5b505050506040513d6020811015620001e357600080fd5b50516001600160601b0319606091821b81166101005293901b9092166101205250620003a592505050565b6001600160e01b031980821614156200026e576040805162461bcd60e51b815260206004820152601c60248201527f4552433136353a20696e76616c696420696e7465726661636520696400000000604482015290519081900360640190fd5b6001600160e01b0319166000908152602081905260409020805460ff19166001179055565b828054600181600116156101000203166002900490600052602060002090601f016020900481019282620002cb576000855562000316565b82601f10620002e657805160ff191683800117855562000316565b8280016001018555821562000316579182015b8281111562000316578251825591602001919060010190620002f9565b506200032492915062000328565b5090565b5b8082111562000324576000815560010162000329565b80516001600160a01b03811681146200035757600080fd5b919050565b60008060006060848603121562000371578283fd5b6200037c846200033f565b92506200038c602085016200033f565b91506200039c604085016200033f565b90509250925092565b60805160a05160c05160601c60e05160601c6101005160601c6101205160601c615a2a6200043760003980612823525080610a2552806113e55280612a3b5280612bbd52806133c0525080610244528061164d528061173852806117c05280613c3c5280613c825280613cf6525080610d455280610e0c52806127d652508061144d52508061142c5250615a2a6000f3fe6080604052600436106102345760003560e01c80634f6ccce71161012e578063ac9650d8116100ab578063df2ab5bb1161006f578063df2ab5bb1461066e578063e985e9c514610681578063f3995c67146106a1578063fa585a12146106b4578063fc6f7865146106d4576102a4565b8063ac9650d8146105e6578063b88d4fde14610606578063c2e3140a14610626578063c45a015514610639578063c87b56dd1461064e576102a4565b806388316456116100f2578063883164561461054357806395d89b411461056657806399fbab881461057b578063a22cb465146105b3578063a4a78f0c146105d3576102a4565b80634f6ccce7146104bb5780636352211e146104db5780636c0360eb146104fb57806370a08231146105105780637ac2ff7b14610530576102a4565b806323b872dd116101bc57806342842e0e1161018057806342842e0e1461044d57806342966c681461046d5780634659a4941461048057806349404b7c146104935780634aa4a4fc146104a6576102a4565b806323b872dd146103ce5780632f745c59146103ee57806330adf81f1461040e5780633119049a146104235780633644e51514610438576102a4565b80630c49ccbe116102035780630c49ccbe1461034e57806312210e8a1461036f57806313ead5621461037757806318160ddd1461038a578063219f5d17146103ac576102a4565b806301ffc9a7146102a957806306fdde03146102df578063081812fc14610301578063095ea7b31461032e576102a4565b366102a457336001600160a01b037f000000000000000000000000000000000000000000000000000000000000000016146102a2576040805162461bcd60e51b81526020600482015260096024820152684e6f7420574554483960b81b604482015290519081900360640190fd5b005b600080fd5b3480156102b557600080fd5b506102c96102c4366004614f0b565b6106e7565b6040516102d6919061544c565b60405180910390f35b3480156102eb57600080fd5b506102f461070a565b6040516102d6919061549f565b34801561030d57600080fd5b5061032161031c366004615205565b6107a0565b6040516102d6919061532f565b34801561033a57600080fd5b506102a2610349366004614dd5565b6107f3565b61036161035c366004614fd0565b6108c9565b6040516102d6929190615626565b6102a2610d11565b610321610385366004614c68565b610d23565b34801561039657600080fd5b5061039f611017565b6040516102d69190615457565b6103bf6103ba366004614fe1565b611028565b6040516102d6939291906155e1565b3480156103da57600080fd5b506102a26103e9366004614cc1565b61133d565b3480156103fa57600080fd5b5061039f610409366004614dd5565b611394565b34801561041a57600080fd5b5061039f6113bf565b34801561042f57600080fd5b506103216113e3565b34801561044457600080fd5b5061039f611407565b34801561045957600080fd5b506102a2610468366004614cc1565b6114c5565b6102a261047b366004615205565b6114e0565b6102a261048e366004614e41565b6115af565b6102a26104a136600461521d565b611649565b3480156104b257600080fd5b506103216117be565b3480156104c757600080fd5b5061039f6104d6366004615205565b6117e2565b3480156104e757600080fd5b506103216104f6366004615205565b6117f8565b34801561050757600080fd5b506102f4611820565b34801561051c57600080fd5b5061039f61052b366004614c14565b611825565b6102a261053e366004614e41565b61188d565b61055661055136600461509d565b611c7f565b6040516102d69493929190615602565b34801561057257600080fd5b506102f4612197565b34801561058757600080fd5b5061059b610596366004615205565b6121f8565b6040516102d69c9b9a99989796959493929190615634565b3480156105bf57600080fd5b506102a26105ce366004614da8565b612409565b6102a26105e1366004614e41565b61250e565b6105f96105f4366004614e9c565b6125a7565b6040516102d691906153ec565b34801561061257600080fd5b506102a2610621366004614d01565b6126e7565b6102a2610634366004614e41565b612745565b34801561064557600080fd5b506103216127d4565b34801561065a57600080fd5b506102f4610669366004615205565b6127f8565b6102a261067c366004614e00565b6128ae565b34801561068d57600080fd5b506102c961069c366004614c30565b612986565b6102a26106af366004614e41565b6129b4565b3480156106c057600080fd5b506102a26106cf366004615264565b612a26565b6103616106e2366004614fb9565b612aa4565b6001600160e01b0319811660009081526020819052604090205460ff165b919050565b60068054604080516020601f60026000196101006001881615020190951694909404938401819004810282018101909252828152606093909290918301828280156107965780601f1061076b57610100808354040283529160200191610796565b820191906000526020600020905b81548152906001019060200180831161077957829003601f168201915b5050505050905090565b60006107ab82612f6f565b6107d05760405162461bcd60e51b81526004016107c7906154d8565b60405180910390fd5b506000908152600c6020526040902054600160601b90046001600160a01b031690565b60006107fe826117f8565b9050806001600160a01b0316836001600160a01b031614156108515760405162461bcd60e51b81526004018080602001828103825260218152602001806159a36021913960400191505060405180910390fd5b806001600160a01b0316610863612f7c565b6001600160a01b0316148061087f575061087f8161069c612f7c565b6108ba5760405162461bcd60e51b81526004018080602001828103825260388152602001806158cd6038913960400191505060405180910390fd5b6108c48383612f80565b505050565b60008082356108d83382612ff6565b6108f45760405162461bcd60e51b81526004016107c7906154b2565b836080013580610902613092565b111561094b576040805162461bcd60e51b8152602060048201526013602482015272151c985b9cd858dd1a5bdb881d1bdbc81bdb19606a1b604482015290519081900360640190fd5b600061095d60408701602088016150af565b6001600160801b03161161097057600080fd5b84356000908152600c602090815260409182902060018101549092600160801b9091046001600160801b0316916109ab9189019089016150af565b6001600160801b0316816001600160801b031610156109c957600080fd5b6001828101546001600160501b03166000908152600b60209081526040808320815160608101835281546001600160a01b039081168252919095015490811692850192909252600160a01b90910462ffffff1690830152610a4a7f000000000000000000000000000000000000000000000000000000000000000083613096565b60018501549091506001600160a01b0382169063a34123a790600160501b8104600290810b91600160681b9004900b610a8960408e0160208f016150af565b6040518463ffffffff1660e01b8152600401610aa793929190615479565b6040805180830381600087803b158015610ac057600080fd5b505af1158015610ad4573d6000803e3d6000fd5b505050506040513d601f19601f82011682018060405250810190610af89190615241565b909850965060408901358810801590610b15575088606001358710155b610b315760405162461bcd60e51b81526004016107c790615524565b6001840154600090610b5a903090600160501b8104600290810b91600160681b9004900b613175565b9050600080836001600160a01b031663514ea4bf846040518263ffffffff1660e01b8152600401610b8b9190615457565b60a06040518083038186803b158015610ba357600080fd5b505afa158015610bb7573d6000803e3d6000fd5b505050506040513d601f19601f82011682018060405250810190610bdb91906150f9565b50509250925050610c0087600201548303876001600160801b0316600160801b6131ca565b6004880180546001600160801b03198116928e016001600160801b039182160181169290921790556003880154610c4191908303908816600160801b6131ca565b6004880180546001600160801b03808216938e01600160801b9283900482160116029190911790556002870182905560038701819055610c8760408d0160208e016150af565b86038760010160106101000a8154816001600160801b0302191690836001600160801b031602179055508b600001357f26f6a048ee9138f2c0ce266f322cb99228e8d619ae2bff30c67f8dcf9d2377b48d6020016020810190610cea91906150af565b8d8d604051610cfb939291906155e1565b60405180910390a2505050505050505050915091565b4715610d2157610d213347613279565b565b6000836001600160a01b0316856001600160a01b031610610d4357600080fd5b7f00000000000000000000000000000000000000000000000000000000000000006001600160a01b0316631698ee828686866040518463ffffffff1660e01b815260040180846001600160a01b03168152602001836001600160a01b031681526020018262ffffff168152602001935050505060206040518083038186803b158015610dce57600080fd5b505afa158015610de2573d6000803e3d6000fd5b505050506040513d6020811015610df857600080fd5b505190506001600160a01b038116610f2e577f00000000000000000000000000000000000000000000000000000000000000006001600160a01b031663a16712958686866040518463ffffffff1660e01b815260040180846001600160a01b03168152602001836001600160a01b031681526020018262ffffff1681526020019350505050602060405180830381600087803b158015610e9757600080fd5b505af1158015610eab573d6000803e3d6000fd5b505050506040513d6020811015610ec157600080fd5b50516040805163f637731d60e01b81526001600160a01b03858116600483015291519293509083169163f637731d9160248082019260009290919082900301818387803b158015610f1157600080fd5b505af1158015610f25573d6000803e3d6000fd5b5050505061100f565b6000816001600160a01b0316633850c7bd6040518163ffffffff1660e01b815260040160e06040518083038186803b158015610f6957600080fd5b505afa158015610f7d573d6000803e3d6000fd5b505050506040513d60e0811015610f9357600080fd5b505190506001600160a01b03811661100d57816001600160a01b031663f637731d846040518263ffffffff1660e01b815260040180826001600160a01b03168152602001915050600060405180830381600087803b158015610ff457600080fd5b505af1158015611008573d6000803e3d6000fd5b505050505b505b949350505050565b60006110236002613368565b905090565b60008060008360a001358061103b613092565b1115611084576040805162461bcd60e51b8152602060048201526013602482015272151c985b9cd858dd1a5bdb881d1bdbc81bdb19606a1b604482015290519081900360640190fd5b84356000908152600c602090815260408083206001808201546001600160501b0381168652600b855283862084516060808201875282546001600160a01b039081168352929094015480831682890190815262ffffff600160a01b9092048216838901908152885161014081018a528451861681529151909416818a0152925116828701523082850152600160501b8304600290810b810b608080850191909152600160681b909404810b900b60a0830152958c013560c0820152938b013560e0850152908a0135610100840152890135610120830152929061116690613373565b6001870154939a5091985096509150600090611199903090600160501b8104600290810b91600160681b9004900b613175565b9050600080836001600160a01b031663514ea4bf846040518263ffffffff1660e01b81526004016111ca9190615457565b60a06040518083038186803b1580156111e257600080fd5b505afa1580156111f6573d6000803e3d6000fd5b505050506040513d601f19601f8201168201806040525081019061121a91906150f9565b50509250925050611256866002015483038760010160109054906101000a90046001600160801b03166001600160801b0316600160801b6131ca565b6004870180546001600160801b0380821690930183166001600160801b03199091161790556003870154600188015461129d9291840391600160801b9182900416906131ca565b6004870180546001600160801b03600160801b80830482169094018116840291811691909117909155600288018490556003880183905560018801805483810483168e018316909302929091169190911790556040518b35907f3067048beee31b25b2f1681f88dac838c8bba36af25bfb2b7cf7473a5847e35f90611327908d908d908d906155e1565b60405180910390a2505050505050509193909250565b61134e611348612f7c565b82612ff6565b6113895760405162461bcd60e51b81526004018080602001828103825260318152602001806159c46031913960400191505060405180910390fd5b6108c48383836135ae565b6001600160a01b03821660009081526001602052604081206113b690836136fa565b90505b92915050565b7f49ecf333e5b8c95c40fdafc95c1ad136e8914a8fb55e9dc8bb01eaa83a2df9ad81565b7f000000000000000000000000000000000000000000000000000000000000000081565b60007f8b73c3c69bb8fe3d512ecc4cf759cc79239f7b179b0ffacaa9a75d522b39400f7f00000000000000000000000000000000000000000000000000000000000000007f0000000000000000000000000000000000000000000000000000000000000000611474613706565b3060405160200180868152602001858152602001848152602001838152602001826001600160a01b031681526020019550505050505060405160208183030381529060405280519060200120905090565b6108c4838383604051806020016040528060008152506126e7565b806114eb3382612ff6565b6115075760405162461bcd60e51b81526004016107c7906154b2565b6000828152600c602052604090206001810154600160801b90046001600160801b0316158015611542575060048101546001600160801b0316155b801561156057506004810154600160801b90046001600160801b0316155b61157c5760405162461bcd60e51b81526004016107c79061557c565b6000838152600c60205260408120818155600181018290556002810182905560038101829055600401556108c48361370a565b604080516323f2ebc360e21b815233600482015230602482015260448101879052606481018690526001608482015260ff851660a482015260c4810184905260e4810183905290516001600160a01b03881691638fcbaf0c9161010480830192600092919082900301818387803b15801561162957600080fd5b505af115801561163d573d6000803e3d6000fd5b50505050505050505050565b60007f00000000000000000000000000000000000000000000000000000000000000006001600160a01b03166370a08231306040518263ffffffff1660e01b815260040180826001600160a01b0316815260200191505060206040518083038186803b1580156116b857600080fd5b505afa1580156116cc573d6000803e3d6000fd5b505050506040513d60208110156116e257600080fd5b5051905082811015611730576040805162461bcd60e51b8152602060048201526012602482015271496e73756666696369656e7420574554483960701b604482015290519081900360640190fd5b80156108c4577f00000000000000000000000000000000000000000000000000000000000000006001600160a01b0316632e1a7d4d826040518263ffffffff1660e01b815260040180828152602001915050600060405180830381600087803b15801561179c57600080fd5b505af11580156117b0573d6000803e3d6000fd5b505050506108c48282613279565b7f000000000000000000000000000000000000000000000000000000000000000081565b6000806117f06002846137d7565b509392505050565b60006113b98260405180606001604052806029815260200161592f60299139600291906137f5565b606090565b60006001600160a01b03821661186c5760405162461bcd60e51b815260040180806020018281038252602a815260200180615905602a913960400191505060405180910390fd5b6001600160a01b03821660009081526001602052604090206113b990613368565b83611896613092565b11156118da576040805162461bcd60e51b815260206004820152600e60248201526d14195c9b5a5d08195e1c1a5c995960921b604482015290519081900360640190fd5b60006118e4611407565b7f49ecf333e5b8c95c40fdafc95c1ad136e8914a8fb55e9dc8bb01eaa83a2df9ad888861191081613802565b604080516020808201969096526001600160a01b03909416848201526060840192909252608083015260a08083018a90528151808403909101815260c08301825280519084012061190160f01b60e084015260e283019490945261010280830194909452805180830390940184526101229091019052815191012090506000611998876117f8565b9050806001600160a01b0316886001600160a01b031614156119eb5760405162461bcd60e51b81526004018080602001828103825260278152602001806158306027913960400191505060405180910390fd5b6119f481613837565b15611b5c576040805160208082018790528183018690526001600160f81b031960f889901b1660608301528251604181840301815260618301808552630b135d3f60e11b90526065830186815260858401948552815160a585015281516001600160a01b03871695631626ba7e958995919260c59091019185019080838360005b83811015611a8d578181015183820152602001611a75565b50505050905090810190601f168015611aba5780820380516001836020036101000a031916815260200191505b50935050505060206040518083038186803b158015611ad857600080fd5b505afa158015611aec573d6000803e3d6000fd5b505050506040513d6020811015611b0257600080fd5b50516001600160e01b031916630b135d3f60e11b14611b57576040805162461bcd60e51b815260206004820152600c60248201526b155b985d5d1a1bdc9a5e995960a21b604482015290519081900360640190fd5b611c6b565b600060018387878760405160008152602001604052604051808581526020018460ff1681526020018381526020018281526020019450505050506020604051602081039080840390855afa158015611bb8573d6000803e3d6000fd5b5050604051601f1901519150506001600160a01b038116611c14576040805162461bcd60e51b8152602060048201526011602482015270496e76616c6964207369676e617475726560781b604482015290519081900360640190fd5b816001600160a01b0316816001600160a01b031614611c69576040805162461bcd60e51b815260206004820152600c60248201526b155b985d5d1a1bdc9a5e995960a21b604482015290519081900360640190fd5b505b611c758888612f80565b5050505050505050565b60008060008084610140013580611c94613092565b1115611cdd576040805162461bcd60e51b8152602060048201526013602482015272151c985b9cd858dd1a5bdb881d1bdbc81bdb19606a1b604482015290519081900360640190fd5b604080516101408101909152600090611da99080611cfe60208b018b614c14565b6001600160a01b03168152602001896020016020810190611d1f9190614c14565b6001600160a01b03168152602001611d3d60608b0160408c016151eb565b62ffffff168152306020820152604001611d5d60808b0160608c01614f33565b60020b8152602001611d7560a08b0160808c01614f33565b60020b81526020018960a0013581526020018960c0013581526020018960e001358152602001896101000135815250613373565b92975090955093509050611df6611dc861014089016101208a01614c14565b600d80546001600160b01b0319811660016001600160b01b039283169081019092161790915597508761383d565b6000611e2130611e0c60808b0160608c01614f33565b611e1c60a08c0160808d01614f33565b613175565b9050600080836001600160a01b031663514ea4bf846040518263ffffffff1660e01b8152600401611e529190615457565b60a06040518083038186803b158015611e6a57600080fd5b505afa158015611e7e573d6000803e3d6000fd5b505050506040513d601f19601f82011682018060405250810190611ea291906150f9565b505092509250506000611f1b8560405180606001604052808e6000016020810190611ecd9190614c14565b6001600160a01b031681526020018e6020016020810190611eee9190614c14565b6001600160a01b031681526020018e6040016020810190611f0f91906151eb565b62ffffff16905261396b565b905060405180610140016040528060006001600160601b0316815260200160006001600160a01b03168152602001826001600160501b031681526020018c6060016020810190611f6b9190614f33565b60020b8152602001611f8360a08e0160808f01614f33565b60020b81526020018a6001600160801b0316815260200184815260200183815260200160006001600160801b0316815260200160006001600160801b0316815250600c60008c815260200190815260200160002060008201518160000160006101000a8154816001600160601b0302191690836001600160601b03160217905550602082015181600001600c6101000a8154816001600160a01b0302191690836001600160a01b0316021790555060408201518160010160006101000a8154816001600160501b0302191690836001600160501b03160217905550606082015181600101600a6101000a81548162ffffff021916908360020b62ffffff160217905550608082015181600101600d6101000a81548162ffffff021916908360020b62ffffff16021790555060a08201518160010160106101000a8154816001600160801b0302191690836001600160801b0316021790555060c0820151816002015560e082015181600301556101008201518160040160006101000a8154816001600160801b0302191690836001600160801b031602179055506101208201518160040160106101000a8154816001600160801b0302191690836001600160801b03160217905550905050897f3067048beee31b25b2f1681f88dac838c8bba36af25bfb2b7cf7473a5847e35f8a8a8a604051612182939291906155e1565b60405180910390a25050505050509193509193565b60078054604080516020601f60026000196101006001881615020190951694909404938401819004810282018101909252828152606093909290918301828280156107965780601f1061076b57610100808354040283529160200191610796565b6000818152600c6020908152604080832081516101408101835281546001600160601b03811682526001600160a01b03600160601b909104169381019390935260018101546001600160501b038116928401839052600160501b8104600290810b810b810b6060860152600160681b8204810b810b810b60808601526001600160801b03600160801b92839004811660a08701529083015460c0860152600383015460e0860152600490920154808316610100860152041661012083015282918291829182918291829182918291829182918291906122e95760405162461bcd60e51b81526004016107c790615552565b6000600b600083604001516001600160501b03166001600160501b031681526020019081526020016000206040518060600160405290816000820160009054906101000a90046001600160a01b03166001600160a01b03166001600160a01b031681526020016001820160009054906101000a90046001600160a01b03166001600160a01b03166001600160a01b031681526020016001820160149054906101000a900462ffffff1662ffffff1662ffffff1681525050905081600001518260200151826000015183602001518460400151866060015187608001518860a001518960c001518a60e001518b61010001518c61012001519d509d509d509d509d509d509d509d509d509d509d509d50505091939597999b5091939597999b565b612411612f7c565b6001600160a01b0316826001600160a01b03161415612477576040805162461bcd60e51b815260206004820152601960248201527f4552433732313a20617070726f766520746f2063616c6c657200000000000000604482015290519081900360640190fd5b8060056000612484612f7c565b6001600160a01b03908116825260208083019390935260409182016000908120918716808252919093529120805460ff1916921515929092179091556124c8612f7c565b6001600160a01b03167f17307eab39ab6107e8899845ad3d59bd9653f200f220920489ca2b5937696c318360405180821515815260200191505060405180910390a35050565b60408051636eb1769f60e11b81523360048201523060248201529051600019916001600160a01b0389169163dd62ed3e91604480820192602092909190829003018186803b15801561255f57600080fd5b505afa158015612573573d6000803e3d6000fd5b505050506040513d602081101561258957600080fd5b5051101561259f5761259f8686868686866115af565b505050505050565b60608167ffffffffffffffff811180156125c057600080fd5b506040519080825280602002602001820160405280156125f457816020015b60608152602001906001900390816125df5790505b50905060005b828110156126e0576000803086868581811061261257fe5b905060200281019061262491906156ce565b60405161263292919061531f565b600060405180830381855af49150503d806000811461266d576040519150601f19603f3d011682016040523d82523d6000602084013e612672565b606091505b5091509150816126be5760448151101561268b57600080fd5b600481019050808060200190518101906126a59190614f4f565b60405162461bcd60e51b81526004016107c7919061549f565b808484815181106126cb57fe5b602090810291909101015250506001016125fa565b5092915050565b6126f86126f2612f7c565b83612ff6565b6127335760405162461bcd60e51b81526004018080602001828103825260318152602001806159c46031913960400191505060405180910390fd5b61273f84848484613a4d565b50505050565b60408051636eb1769f60e11b8152336004820152306024820152905186916001600160a01b0389169163dd62ed3e91604480820192602092909190829003018186803b15801561279457600080fd5b505afa1580156127a8573d6000803e3d6000fd5b505050506040513d60208110156127be57600080fd5b5051101561259f5761259f8686868686866129b4565b7f000000000000000000000000000000000000000000000000000000000000000081565b606061280382612f6f565b61280c57600080fd5b60405163e9dc637560e01b81526001600160a01b037f0000000000000000000000000000000000000000000000000000000000000000169063e9dc63759061285a9030908690600401615460565b60006040518083038186803b15801561287257600080fd5b505afa158015612886573d6000803e3d6000fd5b505050506040513d6000823e601f3d908101601f191682016040526113b99190810190614f4f565b6000836001600160a01b03166370a08231306040518263ffffffff1660e01b815260040180826001600160a01b0316815260200191505060206040518083038186803b1580156128fd57600080fd5b505afa158015612911573d6000803e3d6000fd5b505050506040513d602081101561292757600080fd5b5051905082811015612975576040805162461bcd60e51b815260206004820152601260248201527124b739bab33334b1b4b2b73a103a37b5b2b760711b604482015290519081900360640190fd5b801561273f5761273f848383613a9f565b6001600160a01b03918216600090815260056020908152604080832093909416825291909152205460ff1690565b6040805163d505accf60e01b8152336004820152306024820152604481018790526064810186905260ff8516608482015260a4810184905260c4810183905290516001600160a01b0388169163d505accf9160e480830192600092919082900301818387803b15801561162957600080fd5b6000612a3482840184614ff2565b9050612a647f00000000000000000000000000000000000000000000000000000000000000008260000151613be6565b508415612a7f578051516020820151612a7f91903388613c3a565b8315612a9d57612a9d81600001516020015182602001513387613c3a565b5050505050565b6000808235612ab33382612ff6565b612acf5760405162461bcd60e51b81526004016107c7906154b2565b6000612ae160608601604087016150af565b6001600160801b03161180612b0e57506000612b0360808601606087016150af565b6001600160801b0316115b612b1757600080fd5b600080612b2a6040870160208801614c14565b6001600160a01b031614612b4d57612b486040860160208701614c14565b612b4f565b305b85356000908152600c602090815260408083206001808201546001600160501b03168552600b8452828520835160608101855281546001600160a01b039081168252919092015490811694820194909452600160a01b90930462ffffff169183019190915292935090612be27f000000000000000000000000000000000000000000000000000000000000000083613096565b600484015460018501549192506001600160801b0380821692600160801b9283900482169290041615612dd857600185015460405163a34123a760e01b81526001600160a01b0385169163a34123a791612c5991600160501b8104600290810b92600160681b909204900b90600090600401615479565b6040805180830381600087803b158015612c7257600080fd5b505af1158015612c86573d6000803e3d6000fd5b505050506040513d601f19601f82011682018060405250810190612caa9190615241565b5050600185015460009081906001600160a01b0386169063514ea4bf90612ce8903090600160501b8104600290810b91600160681b9004900b613175565b6040518263ffffffff1660e01b8152600401612d049190615457565b60a06040518083038186803b158015612d1c57600080fd5b505afa158015612d30573d6000803e3d6000fd5b505050506040513d601f19601f82011682018060405250810190612d5491906150f9565b50509250925050612d90876002015483038860010160109054906101000a90046001600160801b03166001600160801b0316600160801b6131ca565b84019350612dc9876003015482038860010160109054906101000a90046001600160801b03166001600160801b0316600160801b6131ca565b60028801929092556003870155015b6000806001600160801b038416612df560608e0160408f016150af565b6001600160801b031611612e1857612e1360608d0160408e016150af565b612e1a565b835b836001600160801b03168d6060016020810190612e3791906150af565b6001600160801b031611612e5a57612e5560808e0160608f016150af565b612e5c565b835b60018901546040516309e3d67b60e31b81529294509092506001600160a01b03871691634f1eb3d891612eaf918c91600160501b8104600290810b92600160681b909204900b9088908890600401615385565b6040805180830381600087803b158015612ec857600080fd5b505af1158015612edc573d6000803e3d6000fd5b505050506040513d601f19601f82011682018060405250810190612f0091906150cb565b6004890180546001600160801b03196001600160801b03918216600160801b878a0384160217168689038216179091556040519281169d50169a508c35907f40d0efd1a53d60ecbf40971b9daf7dc90178c3aadc7aab1765632738fa8b8f0190610cfb908b90869086906153c2565b60006113b9600283613dca565b3390565b6000818152600c6020526040902080546001600160601b0316600160601b6001600160a01b038516908102919091179091558190612fbd826117f8565b6001600160a01b03167f8c5be1e5ebec7d5bd14f71427d1e84f3dd0314c0f7b2291e5b200ac8c7c3b92560405160405180910390a45050565b600061300182612f6f565b61303c5760405162461bcd60e51b815260040180806020018281038252602c8152602001806158a1602c913960400191505060405180910390fd5b6000613047836117f8565b9050806001600160a01b0316846001600160a01b031614806130825750836001600160a01b0316613077846107a0565b6001600160a01b0316145b8061100f575061100f8185612986565b4290565b600081602001516001600160a01b031682600001516001600160a01b0316106130be57600080fd5b50805160208083015160409384015184516001600160a01b0394851681850152939091168385015262ffffff166060808401919091528351808403820181526080840185528051908301206001600160f81b031960a085015294901b6001600160601b03191660a183015260b58201939093527f1b5c366cb0b7109926c0b161c0a85469fa485e75389d33a4dd753c35b22f157b60d5808301919091528251808303909101815260f5909101909152805191012090565b604080516001600160601b0319606086901b16602080830191909152600285810b60e890811b60348501529085900b901b60378301528251601a818403018152603a90920190925280519101205b9392505050565b600080806000198587098686029250828110908390030390508061320057600084116131f557600080fd5b5082900490506131c3565b80841161320c57600080fd5b6000848688096000868103871696879004966002600389028118808a02820302808a02820302808a02820302808a02820302808a02820302808a02909103029181900381900460010186841190950394909402919094039290920491909117919091029150509392505050565b604080516000808252602082019092526001600160a01b0384169083906040518082805190602001908083835b602083106132c55780518252601f1990920191602091820191016132a6565b6001836020036101000a03801982511681845116808217855250505050505090500191505060006040518083038185875af1925050503d8060008114613327576040519150601f19603f3d011682016040523d82523d6000602084013e61332c565b606091505b50509050806108c4576040805162461bcd60e51b815260206004820152600360248201526222aa2360e91b604482015290519081900360640190fd5b60006113b982613dd6565b6000806000806000604051806060016040528087600001516001600160a01b0316815260200187602001516001600160a01b03168152602001876040015162ffffff1681525090506133e57f000000000000000000000000000000000000000000000000000000000000000082613096565b91506000826001600160a01b0316633850c7bd6040518163ffffffff1660e01b815260040160e06040518083038186803b15801561342257600080fd5b505afa158015613436573d6000803e3d6000fd5b505050506040513d601f19601f8201168201806040525081019061345a919061515a565b505050505050905060006134718860800151613dda565b905060006134828960a00151613dda565b90506134998383838c60c001518d60e0015161410c565b9750505050816001600160a01b0316633c8a7d8d876060015188608001518960a00151896040518060400160405280888152602001336001600160a01b03168152506040516020016134eb91906155a1565b6040516020818303038152906040526040518663ffffffff1660e01b815260040161351a959493929190615343565b6040805180830381600087803b15801561353357600080fd5b505af1158015613547573d6000803e3d6000fd5b505050506040513d601f19601f8201168201806040525081019061356b9190615241565b6101008801519195509350841080159061358a57508561012001518310155b6135a65760405162461bcd60e51b81526004016107c790615524565b509193509193565b826001600160a01b03166135c1826117f8565b6001600160a01b0316146136065760405162461bcd60e51b815260040180806020018281038252602981526020018061597a6029913960400191505060405180910390fd5b6001600160a01b03821661364b5760405162461bcd60e51b81526004018080602001828103825260248152602001806158576024913960400191505060405180910390fd5b6136568383836108c4565b613661600082612f80565b6001600160a01b038316600090815260016020526040902061368390826141d0565b506001600160a01b03821660009081526001602052604090206136a690826141dc565b506136b3600282846141e8565b5080826001600160a01b0316846001600160a01b03167fddf252ad1be2c89b69c2b068fc378daa952ba7f163c4a11628f55a4df523b3ef60405160405180910390a4505050565b60006113b683836141fe565b4690565b6000613715826117f8565b9050613723816000846108c4565b61372e600083612f80565b600082815260086020526040902054600260001961010060018416150201909116041561376c57600082815260086020526040812061376c91614b84565b6001600160a01b038116600090815260016020526040902061378e90836141d0565b5061379a600283614262565b5060405182906000906001600160a01b038416907fddf252ad1be2c89b69c2b068fc378daa952ba7f163c4a11628f55a4df523b3ef908390a45050565b60008080806137e6868661426e565b909450925050505b9250929050565b600061100f8484846142e9565b6000908152600c6020526040902080546001600160601b0319811660016001600160601b039283169081019092161790915590565b3b151590565b6001600160a01b038216613898576040805162461bcd60e51b815260206004820181905260248201527f4552433732313a206d696e7420746f20746865207a65726f2061646472657373604482015290519081900360640190fd5b6138a181612f6f565b156138f3576040805162461bcd60e51b815260206004820152601c60248201527f4552433732313a20746f6b656e20616c7265616479206d696e74656400000000604482015290519081900360640190fd5b6138ff600083836108c4565b6001600160a01b038216600090815260016020526040902061392190826141dc565b5061392e600282846141e8565b5060405181906001600160a01b038416906000907fddf252ad1be2c89b69c2b068fc378daa952ba7f163c4a11628f55a4df523b3ef908290a45050565b6001600160a01b0382166000908152600a60205260409020546001600160501b0316806113b95750600d805460016001600160501b03600160b01b8084048216838101909216026001600160b01b03909316929092179092556001600160a01b038085166000908152600a60209081526040808320805469ffffffffffffffffffff191686179055848352600b825291829020865181549085166001600160a01b031991821617825591870151950180549287015162ffffff16600160a01b0262ffffff60a01b19969094169290911691909117939093161790915592915050565b613a588484846135ae565b613a64848484846143b3565b61273f5760405162461bcd60e51b81526004018080602001828103825260328152602001806157fe6032913960400191505060405180910390fd5b604080516001600160a01b038481166024830152604480830185905283518084039091018152606490920183526020820180516001600160e01b031663a9059cbb60e01b1781529251825160009485949389169392918291908083835b60208310613b1b5780518252601f199092019160209182019101613afc565b6001836020036101000a0380198251168184511680821785525050505050509050019150506000604051808303816000865af19150503d8060008114613b7d576040519150601f19603f3d011682016040523d82523d6000602084013e613b82565b606091505b5091509150818015613bb0575080511580613bb05750808060200190516020811015613bad57600080fd5b50515b612a9d576040805162461bcd60e51b81526020600482015260026024820152612a2360f11b604482015290519081900360640190fd5b6000613bf28383613096565b9050336001600160a01b038216146113b9576040805162461bcd60e51b815260206004808301919091526024820152631413d3d360e21b604482015290519081900360640190fd5b7f00000000000000000000000000000000000000000000000000000000000000006001600160a01b0316846001600160a01b0316148015613c7b5750804710155b15613d9d577f00000000000000000000000000000000000000000000000000000000000000006001600160a01b031663d0e30db0826040518263ffffffff1660e01b81526004016000604051808303818588803b158015613cdb57600080fd5b505af1158015613cef573d6000803e3d6000fd5b50505050507f00000000000000000000000000000000000000000000000000000000000000006001600160a01b031663a9059cbb83836040518363ffffffff1660e01b815260040180836001600160a01b0316815260200182815260200192505050602060405180830381600087803b158015613d6b57600080fd5b505af1158015613d7f573d6000803e3d6000fd5b505050506040513d6020811015613d9557600080fd5b5061273f9050565b6001600160a01b038316301415613dbe57613db9848383613a9f565b61273f565b61273f8484848461451b565b60006113b6838361466b565b5490565b60008060008360020b12613df1578260020b613df9565b8260020b6000035b9050620d89e8811115613e37576040805162461bcd60e51b81526020600482015260016024820152601560fa1b604482015290519081900360640190fd5b600060018216613e4b57600160801b613e5d565b6ffffcb933bd6fad37aa2d162d1a5940015b70ffffffffffffffffffffffffffffffffff1690506002821615613e91576ffff97272373d413259a46990580e213a0260801c5b6004821615613eb0576ffff2e50f5f656932ef12357cf3c7fdcc0260801c5b6008821615613ecf576fffe5caca7e10e4e61c3624eaa0941cd00260801c5b6010821615613eee576fffcb9843d60f6159c9db58835c9266440260801c5b6020821615613f0d576fff973b41fa98c081472e6896dfb254c00260801c5b6040821615613f2c576fff2ea16466c96a3843ec78b326b528610260801c5b6080821615613f4b576ffe5dee046a99a2a811c461f1969c30530260801c5b610100821615613f6b576ffcbe86c7900a88aedcffc83b479aa3a40260801c5b610200821615613f8b576ff987a7253ac413176f2b074cf7815e540260801c5b610400821615613fab576ff3392b0822b70005940c7a398e4b70f30260801c5b610800821615613fcb576fe7159475a2c29b7443b29c7fa6e889d90260801c5b611000821615613feb576fd097f3bdfd2022b8845ad8f792aa58250260801c5b61200082161561400b576fa9f746462d870fdf8a65dc1f90e061e50260801c5b61400082161561402b576f70d869a156d2a1b890bb3df62baf32f70260801c5b61800082161561404b576f31be135f97d08fd981231505542fcfa60260801c5b6201000082161561406c576f09aa508b5b7a84e1c677de54f3e99bc90260801c5b6202000082161561408c576e5d6af8dedb81196699c329225ee6040260801c5b620400008216156140ab576d2216e584f5fa1ea926041bedfe980260801c5b620800008216156140c8576b048a170391f7dc42444e8fa20260801c5b60008460020b13156140e35780600019816140df57fe5b0490505b6401000000008106156140f75760016140fa565b60005b60ff16602082901c0192505050919050565b6000836001600160a01b0316856001600160a01b0316111561412c579293925b846001600160a01b0316866001600160a01b03161161415757614150858585614683565b90506141c7565b836001600160a01b0316866001600160a01b031610156141b957600061417e878686614683565b9050600061418d8789866146e6565b9050806001600160801b0316826001600160801b0316106141ae57806141b0565b815b925050506141c7565b6141c48585846146e6565b90505b95945050505050565b60006113b68383614723565b60006113b683836147e9565b600061100f84846001600160a01b038516614833565b815460009082106142405760405162461bcd60e51b81526004018080602001828103825260228152602001806157dc6022913960400191505060405180910390fd5b82600001828154811061424f57fe5b9060005260206000200154905092915050565b60006113b683836148ca565b8154600090819083106142b25760405162461bcd60e51b81526004018080602001828103825260228152602001806159586022913960400191505060405180910390fd5b60008460000184815481106142c357fe5b906000526020600020906002020190508060000154816001015492509250509250929050565b600082815260018401602052604081205482816143845760405162461bcd60e51b81526004018080602001828103825283818151815260200191508051906020019080838360005b83811015614349578181015183820152602001614331565b50505050905090810190601f1680156143765780820380516001836020036101000a031916815260200191505b509250505060405180910390fd5b5084600001600182038154811061439757fe5b9060005260206000209060020201600101549150509392505050565b60006143c7846001600160a01b0316613837565b6143d35750600161100f565b60006144e1630a85bd0160e11b6143e8612f7c565b88878760405160240180856001600160a01b03168152602001846001600160a01b0316815260200183815260200180602001828103825283818151815260200191508051906020019080838360005b8381101561444f578181015183820152602001614437565b50505050905090810190601f16801561447c5780820380516001836020036101000a031916815260200191505b5095505050505050604051602081830303815290604052906001600160e01b0319166020820180516001600160e01b0383818316178352505050506040518060600160405280603281526020016157fe603291396001600160a01b038816919061499e565b905060008180602001905160208110156144fa57600080fd5b50516001600160e01b031916630a85bd0160e11b1492505050949350505050565b604080516001600160a01b0385811660248301528481166044830152606480830185905283518084039091018152608490920183526020820180516001600160e01b03166323b872dd60e01b178152925182516000948594938a169392918291908083835b6020831061459f5780518252601f199092019160209182019101614580565b6001836020036101000a0380198251168184511680821785525050505050509050019150506000604051808303816000865af19150503d8060008114614601576040519150601f19603f3d011682016040523d82523d6000602084013e614606565b606091505b5091509150818015614634575080511580614634575080806020019051602081101561463157600080fd5b50515b61259f576040805162461bcd60e51b81526020600482015260036024820152622a232360e91b604482015290519081900360640190fd5b60009081526001919091016020526040902054151590565b6000826001600160a01b0316846001600160a01b031611156146a3579192915b60006146c6856001600160a01b0316856001600160a01b0316600160601b6131ca565b90506141c76146e184838888036001600160a01b03166131ca565b6149ad565b6000826001600160a01b0316846001600160a01b03161115614706579192915b61100f6146e183600160601b8787036001600160a01b03166131ca565b600081815260018301602052604081205480156147df578354600019808301919081019060009087908390811061475657fe5b906000526020600020015490508087600001848154811061477357fe5b6000918252602080832090910192909255828152600189810190925260409020908401905586548790806147a357fe5b600190038181906000526020600020016000905590558660010160008781526020019081526020016000206000905560019450505050506113b9565b60009150506113b9565b60006147f5838361466b565b61482b575081546001818101845560008481526020808220909301849055845484825282860190935260409020919091556113b9565b5060006113b9565b6000828152600184016020526040812054806148985750506040805180820182528381526020808201848152865460018181018955600089815284812095516002909302909501918255915190820155865486845281880190925292909120556131c3565b828560000160018303815481106148ab57fe5b90600052602060002090600202016001018190555060009150506131c3565b600081815260018301602052604081205480156147df57835460001980830191908101906000908790839081106148fd57fe5b906000526020600020906002020190508087600001848154811061491d57fe5b60009182526020808320845460029093020191825560019384015491840191909155835482528983019052604090209084019055865487908061495c57fe5b60008281526020808220600260001990940193840201828155600190810183905592909355888152898201909252604082209190915594506113b99350505050565b606061100f84846000856149c3565b806001600160801b038116811461070557600080fd5b606082471015614a045760405162461bcd60e51b815260040180806020018281038252602681526020018061587b6026913960400191505060405180910390fd5b614a0d85613837565b614a5e576040805162461bcd60e51b815260206004820152601d60248201527f416464726573733a2063616c6c20746f206e6f6e2d636f6e7472616374000000604482015290519081900360640190fd5b600080866001600160a01b031685876040518082805190602001908083835b60208310614a9c5780518252601f199092019160209182019101614a7d565b6001836020036101000a03801982511681845116808217855250505050505090500191505060006040518083038185875af1925050503d8060008114614afe576040519150601f19603f3d011682016040523d82523d6000602084013e614b03565b606091505b5091509150614b13828286614b1e565b979650505050505050565b60608315614b2d5750816131c3565b825115614b3d5782518084602001fd5b60405162461bcd60e51b8152602060048201818152845160248401528451859391928392604401919085019080838360008315614349578181015183820152602001614331565b50805460018160011615610100020316600290046000825580601f10614baa5750614bc8565b601f016020900490600052602060002090810190614bc89190614bcb565b50565b5b80821115614be05760008155600101614bcc565b5090565b803561070581615785565b805161ffff8116811461070557600080fd5b803562ffffff8116811461070557600080fd5b600060208284031215614c25578081fd5b81356131c381615785565b60008060408385031215614c42578081fd5b8235614c4d81615785565b91506020830135614c5d81615785565b809150509250929050565b60008060008060808587031215614c7d578182fd5b8435614c8881615785565b93506020850135614c9881615785565b9250614ca660408601614c01565b91506060850135614cb681615785565b939692955090935050565b600080600060608486031215614cd5578081fd5b8335614ce081615785565b92506020840135614cf081615785565b929592945050506040919091013590565b60008060008060808587031215614d16578182fd5b8435614d2181615785565b93506020850135614d3181615785565b925060408501359150606085013567ffffffffffffffff811115614d53578182fd5b8501601f81018713614d63578182fd5b8035614d76614d7182615737565b615713565b818152886020838501011115614d8a578384fd5b81602084016020830137908101602001929092525092959194509250565b60008060408385031215614dba578182fd5b8235614dc581615785565b91506020830135614c5d8161579a565b60008060408385031215614de7578182fd5b8235614df281615785565b946020939093013593505050565b600080600060608486031215614e14578081fd5b8335614e1f81615785565b9250602084013591506040840135614e3681615785565b809150509250925092565b60008060008060008060c08789031215614e59578384fd5b8635614e6481615785565b955060208701359450604087013593506060870135614e82816157cc565b9598949750929560808101359460a0909101359350915050565b60008060208385031215614eae578182fd5b823567ffffffffffffffff80821115614ec5578384fd5b818501915085601f830112614ed8578384fd5b813581811115614ee6578485fd5b8660208083028501011115614ef9578485fd5b60209290920196919550909350505050565b600060208284031215614f1c578081fd5b81356001600160e01b0319811681146131c3578182fd5b600060208284031215614f44578081fd5b81356131c3816157a8565b600060208284031215614f60578081fd5b815167ffffffffffffffff811115614f76578182fd5b8201601f81018413614f86578182fd5b8051614f94614d7182615737565b818152856020838501011115614fa8578384fd5b6141c7826020830160208601615759565b600060808284031215614fca578081fd5b50919050565b600060a08284031215614fca578081fd5b600060c08284031215614fca578081fd5b60008183036080811215615004578182fd5b6040516040810167ffffffffffffffff828210818311171561502257fe5b816040526060841215615033578485fd5b60a083019350818410818511171561504757fe5b50826040528435925061505983615785565b91825260208401359161506b83615785565b82606083015261507d60408601614c01565b6080830152815261509060608501614be4565b6020820152949350505050565b60006101608284031215614fca578081fd5b6000602082840312156150c0578081fd5b81356131c3816157b7565b600080604083850312156150dd578182fd5b82516150e8816157b7565b6020840151909250614c5d816157b7565b600080600080600060a08688031215615110578283fd5b855161511b816157b7565b809550506020860151935060408601519250606086015161513b816157b7565b608087015190925061514c816157b7565b809150509295509295909350565b600080600080600080600060e0888a031215615174578485fd5b875161517f81615785565b6020890151909750615190816157a8565b955061519e60408901614bef565b94506151ac60608901614bef565b93506151ba60808901614bef565b925060a08801516151ca816157cc565b60c08901519092506151db8161579a565b8091505092959891949750929550565b6000602082840312156151fc578081fd5b6113b682614c01565b600060208284031215615216578081fd5b5035919050565b6000806040838503121561522f578182fd5b823591506020830135614c5d81615785565b60008060408385031215615253578182fd5b505080516020909101519092909150565b60008060008060608587031215615279578182fd5b8435935060208501359250604085013567ffffffffffffffff8082111561529e578384fd5b818701915087601f8301126152b1578384fd5b8135818111156152bf578485fd5b8860208285010111156152d0578485fd5b95989497505060200194505050565b600081518084526152f7816020860160208601615759565b601f01601f19169290920160200192915050565b60020b9052565b6001600160801b03169052565b6000828483379101908152919050565b6001600160a01b0391909116815260200190565b600060018060a01b03871682528560020b60208301528460020b60408301526001600160801b038416606083015260a06080830152614b1360a08301846152df565b6001600160a01b03959095168552600293840b60208601529190920b60408401526001600160801b03918216606084015216608082015260a00190565b6001600160a01b039390931683526001600160801b03918216602084015216604082015260600190565b6000602080830181845280855180835260408601915060408482028701019250838701855b8281101561543f57603f1988860301845261542d8583516152df565b94509285019290850190600101615411565b5092979650505050505050565b901515815260200190565b90815260200190565b6001600160a01b03929092168252602082015260400190565b600293840b81529190920b60208201526001600160801b03909116604082015260600190565b6000602082526113b660208301846152df565b6020808252600c908201526b139bdd08185c1c1c9bdd995960a21b604082015260600190565b6020808252602c908201527f4552433732313a20617070726f76656420717565727920666f72206e6f6e657860408201526b34b9ba32b73a103a37b5b2b760a11b606082015260800190565b602080825260149082015273507269636520736c69707061676520636865636b60601b604082015260600190565b60208082526010908201526f125b9d985b1a59081d1bdad95b88125160821b604082015260600190565b6020808252600b908201526a139bdd0818db19585c995960aa1b604082015260600190565b815180516001600160a01b03908116835260208083015182168185015260409283015162ffffff1692840192909252920151909116606082015260800190565b6001600160801b039390931683526020830191909152604082015260600190565b9384526001600160801b039290921660208401526040830152606082015260800190565b918252602082015260400190565b6001600160601b038d1681526001600160a01b038c811660208301528b811660408301528a16606082015262ffffff89166080820152600288900b60a0820152610180810161568660c083018961530b565b61569360e0830188615312565b85610100830152846101208301526156af610140830185615312565b6156bd610160830184615312565b9d9c50505050505050505050505050565b6000808335601e198436030181126156e4578283fd5b83018035915067ffffffffffffffff8211156156fe578283fd5b6020019150368190038213156137ee57600080fd5b60405181810167ffffffffffffffff8111828210171561572f57fe5b604052919050565b600067ffffffffffffffff82111561574b57fe5b50601f01601f191660200190565b60005b8381101561577457818101518382015260200161575c565b8381111561273f5750506000910152565b6001600160a01b0381168114614bc857600080fd5b8015158114614bc857600080fd5b8060020b8114614bc857600080fd5b6001600160801b0381168114614bc857600080fd5b60ff81168114614bc857600080fdfe456e756d657261626c655365743a20696e646578206f7574206f6620626f756e64734552433732313a207472616e7366657220746f206e6f6e20455243373231526563656976657220696d706c656d656e7465724552433732315065726d69743a20617070726f76616c20746f2063757272656e74206f776e65724552433732313a207472616e7366657220746f20746865207a65726f2061646472657373416464726573733a20696e73756666696369656e742062616c616e636520666f722063616c6c4552433732313a206f70657261746f7220717565727920666f72206e6f6e6578697374656e7420746f6b656e4552433732313a20617070726f76652063616c6c6572206973206e6f74206f776e6572206e6f7220617070726f76656420666f7220616c6c4552433732313a2062616c616e636520717565727920666f7220746865207a65726f20616464726573734552433732313a206f776e657220717565727920666f72206e6f6e6578697374656e7420746f6b656e456e756d657261626c654d61703a20696e646578206f7574206f6620626f756e64734552433732313a207472616e73666572206f6620746f6b656e2074686174206973206e6f74206f776e4552433732313a20617070726f76616c20746f2063757272656e74206f776e65724552433732313a207472616e736665722063616c6c6572206973206e6f74206f776e6572206e6f7220617070726f766564a26469706673582212200fc97bde31798e433000c15e522375b3c5d1c93882ba9022c35527291541cc3d64736f6c63430007060033",
  "linkReferences": {},
  "deployedLinkReferences": {}
}